{"abi":[{"inputs":[{"internalType":"uint256","name":"minimum","type":"uint256"},{"internalType":"address","name":"_manager","type":"address"}],"stateMutability":"nonpayable","type":"constructor"},{"inputs":[{"internalType":"uint256","name":"index","type":"uint256"}],"name":"approveRequest","outputs":[],"stateMutability":"nonpayable","type":"function"},{"inputs":[{"internalType":"address","name":"","type":"address"}],"name":"approvers","outputs":[{"internalType":"bool","name":"","type":"bool"}],"stateMutability":"view","type":"function"},{"inputs":[],"name":"approversCount","outputs":[{"internalType":"uint256","name":"","type":"uint256"}],"stateMutability":"view","type":"function"},{"inputs":[],"name":"contribute","outputs":[],"stateMutability":"payable","type":"function"},{"inputs":[{"internalType":"string","name":"_description","type":"string"},{"internalType":"uint256","name":"_value","type":"uint256"},{"internalType":"address payable","name":"_recipient","type":"address"}],"name":"createRequest","outputs":[],"stateMutability":"nonpayable","type":"function"},{"inputs":[{"internalType":"uint256","name":"index","type":"uint256"}],"name":"finalizeRequest","outputs":[],"stateMutability":"nonpayable","type":"function"},{"inputs":[],"name":"getRequestCount","outputs":[{"internalType":"uint256","name":"","type":"uint256"}],"stateMutability":"view","type":"function"},{"inputs":[],"name":"getSummary","outputs":[{"internalType":"uint256","name":"","type":"uint256"},{"internalType":"uint256","name":"","type":"uint256"},{"internalType":"uint256","name":"","type":"uint256"},{"internalType":"uint256","name":"","type":"uint256"},{"internalType":"address","name":"","type":"address"}],"stateMutability":"view","type":"function"},{"inputs":[],"name":"manager","outputs":[{"internalType":"address","name":"","type":"address"}],"stateMutability":"view","type":"function"},{"inputs":[],"name":"minimumContribution","outputs":[{"internalType":"uint256","name":"","type":"uint256"}],"stateMutability":"view","type":"function"},{"inputs":[{"internalType":"uint256","name":"","type":"uint256"}],"name":"requests","outputs":[{"internalType":"string","name":"description","type":"string"},{"internalType":"uint256","name":"value","type":"uint256"},{"internalType":"address payable","name":"recipient","type":"address"},{"internalType":"bool","name":"complete","type":"bool"},{"internalType":"uint256","name":"approvalCount","type":"uint256"}],"stateMutability":"view","type":"function"}],"devdoc":{"kind":"dev","methods":{},"version":1},"evm":{"assembly":"    /* \"Campaign.sol\":421:2500  contract Campaign {... */\n  mstore(0x40, 0x80)\n    /* \"Campaign.sol\":910:1027  constructor(uint minimum, address _manager){... */\n  callvalue\n  dup1\n  iszero\n  tag_1\n  jumpi\n  0x00\n  dup1\n  revert\ntag_1:\n  pop\n  mload(0x40)\n  sub(codesize, bytecodeSize)\n  dup1\n  bytecodeSize\n  dup4\n  codecopy\n  dup2\n  dup2\n  add\n  0x40\n  mstore\n  dup2\n  add\n  swap1\n  tag_2\n  swap2\n  swap1\n  tag_3\n  jump\t// in\ntag_2:\n    /* \"Campaign.sol\":973:981  _manager */\n  dup1\n    /* \"Campaign.sol\":963:970  manager */\n  0x01\n  0x00\n    /* \"Campaign.sol\":963:981  manager = _manager */\n  0x0100\n  exp\n  dup2\n  sload\n  dup2\n  0xffffffffffffffffffffffffffffffffffffffff\n  mul\n  not\n  and\n  swap1\n  dup4\n  0xffffffffffffffffffffffffffffffffffffffff\n  and\n  mul\n  or\n  swap1\n  sstore\n  pop\n    /* \"Campaign.sol\":1013:1020  minimum */\n  dup2\n    /* \"Campaign.sol\":991:1010  minimumContribution */\n  0x02\n    /* \"Campaign.sol\":991:1020  minimumContribution = minimum */\n  dup2\n  swap1\n  sstore\n  pop\n    /* \"Campaign.sol\":910:1027  constructor(uint minimum, address _manager){... */\n  pop\n  pop\n    /* \"Campaign.sol\":421:2500  contract Campaign {... */\n  jump(tag_6)\n    /* \"#utility.yul\":88:205   */\ntag_8:\n    /* \"#utility.yul\":197:198   */\n  0x00\n    /* \"#utility.yul\":194:195   */\n  dup1\n    /* \"#utility.yul\":187:199   */\n  revert\n    /* \"#utility.yul\":334:411   */\ntag_10:\n    /* \"#utility.yul\":371:378   */\n  0x00\n    /* \"#utility.yul\":400:405   */\n  dup2\n    /* \"#utility.yul\":389:405   */\n  swap1\n  pop\n    /* \"#utility.yul\":334:411   */\n  swap2\n  swap1\n  pop\n  jump\t// out\n    /* \"#utility.yul\":417:539   */\ntag_11:\n    /* \"#utility.yul\":490:514   */\n  tag_23\n    /* \"#utility.yul\":508:513   */\n  dup2\n    /* \"#utility.yul\":490:514   */\n  tag_10\n  jump\t// in\ntag_23:\n    /* \"#utility.yul\":483:488   */\n  dup2\n    /* \"#utility.yul\":480:515   */\n  eq\n    /* \"#utility.yul\":470:533   */\n  tag_24\n  jumpi\n    /* \"#utility.yul\":529:530   */\n  0x00\n    /* \"#utility.yul\":526:527   */\n  dup1\n    /* \"#utility.yul\":519:531   */\n  revert\n    /* \"#utility.yul\":470:533   */\ntag_24:\n    /* \"#utility.yul\":417:539   */\n  pop\n  jump\t// out\n    /* \"#utility.yul\":545:688   */\ntag_12:\n    /* \"#utility.yul\":602:607   */\n  0x00\n    /* \"#utility.yul\":633:639   */\n  dup2\n    /* \"#utility.yul\":627:640   */\n  mload\n    /* \"#utility.yul\":618:640   */\n  swap1\n  pop\n    /* \"#utility.yul\":649:682   */\n  tag_26\n    /* \"#utility.yul\":676:681   */\n  dup2\n    /* \"#utility.yul\":649:682   */\n  tag_11\n  jump\t// in\ntag_26:\n    /* \"#utility.yul\":545:688   */\n  swap3\n  swap2\n  pop\n  pop\n  jump\t// out\n    /* \"#utility.yul\":694:820   */\ntag_13:\n    /* \"#utility.yul\":731:738   */\n  0x00\n    /* \"#utility.yul\":771:813   */\n  0xffffffffffffffffffffffffffffffffffffffff\n    /* \"#utility.yul\":764:769   */\n  dup3\n    /* \"#utility.yul\":760:814   */\n  and\n    /* \"#utility.yul\":749:814   */\n  swap1\n  pop\n    /* \"#utility.yul\":694:820   */\n  swap2\n  swap1\n  pop\n  jump\t// out\n    /* \"#utility.yul\":826:922   */\ntag_14:\n    /* \"#utility.yul\":863:870   */\n  0x00\n    /* \"#utility.yul\":892:916   */\n  tag_29\n    /* \"#utility.yul\":910:915   */\n  dup3\n    /* \"#utility.yul\":892:916   */\n  tag_13\n  jump\t// in\ntag_29:\n    /* \"#utility.yul\":881:916   */\n  swap1\n  pop\n    /* \"#utility.yul\":826:922   */\n  swap2\n  swap1\n  pop\n  jump\t// out\n    /* \"#utility.yul\":928:1050   */\ntag_15:\n    /* \"#utility.yul\":1001:1025   */\n  tag_31\n    /* \"#utility.yul\":1019:1024   */\n  dup2\n    /* \"#utility.yul\":1001:1025   */\n  tag_14\n  jump\t// in\ntag_31:\n    /* \"#utility.yul\":994:999   */\n  dup2\n    /* \"#utility.yul\":991:1026   */\n  eq\n    /* \"#utility.yul\":981:1044   */\n  tag_32\n  jumpi\n    /* \"#utility.yul\":1040:1041   */\n  0x00\n    /* \"#utility.yul\":1037:1038   */\n  dup1\n    /* \"#utility.yul\":1030:1042   */\n  revert\n    /* \"#utility.yul\":981:1044   */\ntag_32:\n    /* \"#utility.yul\":928:1050   */\n  pop\n  jump\t// out\n    /* \"#utility.yul\":1056:1199   */\ntag_16:\n    /* \"#utility.yul\":1113:1118   */\n  0x00\n    /* \"#utility.yul\":1144:1150   */\n  dup2\n    /* \"#utility.yul\":1138:1151   */\n  mload\n    /* \"#utility.yul\":1129:1151   */\n  swap1\n  pop\n    /* \"#utility.yul\":1160:1193   */\n  tag_34\n    /* \"#utility.yul\":1187:1192   */\n  dup2\n    /* \"#utility.yul\":1160:1193   */\n  tag_15\n  jump\t// in\ntag_34:\n    /* \"#utility.yul\":1056:1199   */\n  swap3\n  swap2\n  pop\n  pop\n  jump\t// out\n    /* \"#utility.yul\":1205:1712   */\ntag_3:\n    /* \"#utility.yul\":1284:1290   */\n  0x00\n    /* \"#utility.yul\":1292:1298   */\n  dup1\n    /* \"#utility.yul\":1341:1343   */\n  0x40\n    /* \"#utility.yul\":1329:1338   */\n  dup4\n    /* \"#utility.yul\":1320:1327   */\n  dup6\n    /* \"#utility.yul\":1316:1339   */\n  sub\n    /* \"#utility.yul\":1312:1344   */\n  slt\n    /* \"#utility.yul\":1309:1428   */\n  iszero\n  tag_36\n  jumpi\n    /* \"#utility.yul\":1347:1426   */\n  tag_37\n  tag_8\n  jump\t// in\ntag_37:\n    /* \"#utility.yul\":1309:1428   */\ntag_36:\n    /* \"#utility.yul\":1467:1468   */\n  0x00\n    /* \"#utility.yul\":1492:1556   */\n  tag_38\n    /* \"#utility.yul\":1548:1555   */\n  dup6\n    /* \"#utility.yul\":1539:1545   */\n  dup3\n    /* \"#utility.yul\":1528:1537   */\n  dup7\n    /* \"#utility.yul\":1524:1546   */\n  add\n    /* \"#utility.yul\":1492:1556   */\n  tag_12\n  jump\t// in\ntag_38:\n    /* \"#utility.yul\":1482:1556   */\n  swap3\n  pop\n    /* \"#utility.yul\":1438:1566   */\n  pop\n    /* \"#utility.yul\":1605:1607   */\n  0x20\n    /* \"#utility.yul\":1631:1695   */\n  tag_39\n    /* \"#utility.yul\":1687:1694   */\n  dup6\n    /* \"#utility.yul\":1678:1684   */\n  dup3\n    /* \"#utility.yul\":1667:1676   */\n  dup7\n    /* \"#utility.yul\":1663:1685   */\n  add\n    /* \"#utility.yul\":1631:1695   */\n  tag_16\n  jump\t// in\ntag_39:\n    /* \"#utility.yul\":1621:1695   */\n  swap2\n  pop\n    /* \"#utility.yul\":1576:1705   */\n  pop\n    /* \"#utility.yul\":1205:1712   */\n  swap3\n  pop\n  swap3\n  swap1\n  pop\n  jump\t// out\n    /* \"Campaign.sol\":421:2500  contract Campaign {... */\ntag_6:\n  dataSize(sub_0)\n  dup1\n  dataOffset(sub_0)\n  0x00\n  codecopy\n  0x00\n  return\nstop\n\nsub_0: assembly {\n        /* \"Campaign.sol\":421:2500  contract Campaign {... */\n      mstore(0x40, 0x80)\n      jumpi(tag_1, lt(calldatasize, 0x04))\n      shr(0xe0, calldataload(0x00))\n      dup1\n      0x81d12c58\n      gt\n      tag_13\n      jumpi\n      dup1\n      0x81d12c58\n      eq\n      tag_7\n      jumpi\n      dup1\n      0x82fde093\n      eq\n      tag_8\n      jumpi\n      dup1\n      0x8a9cfd55\n      eq\n      tag_9\n      jumpi\n      dup1\n      0x937e09b1\n      eq\n      tag_10\n      jumpi\n      dup1\n      0xd7bb99ba\n      eq\n      tag_11\n      jumpi\n      dup1\n      0xd7d1bbdb\n      eq\n      tag_12\n      jumpi\n      jump(tag_1)\n    tag_13:\n      dup1\n      0x03441006\n      eq\n      tag_2\n      jumpi\n      dup1\n      0x0a144391\n      eq\n      tag_3\n      jumpi\n      dup1\n      0x3fad1834\n      eq\n      tag_4\n      jumpi\n      dup1\n      0x4051ddac\n      eq\n      tag_5\n      jumpi\n      dup1\n      0x481c6a75\n      eq\n      tag_6\n      jumpi\n    tag_1:\n      0x00\n      dup1\n      revert\n        /* \"Campaign.sol\":1890:2189  function finalizeRequest(uint index) public restricted {... */\n    tag_2:\n      callvalue\n      dup1\n      iszero\n      tag_14\n      jumpi\n      0x00\n      dup1\n      revert\n    tag_14:\n      pop\n      tag_15\n      0x04\n      dup1\n      calldatasize\n      sub\n      dup2\n      add\n      swap1\n      tag_16\n      swap2\n      swap1\n      tag_17\n      jump\t// in\n    tag_16:\n      tag_18\n      jump\t// in\n    tag_15:\n      stop\n        /* \"Campaign.sol\":746:787  mapping(address => bool) public approvers */\n    tag_3:\n      callvalue\n      dup1\n      iszero\n      tag_19\n      jumpi\n      0x00\n      dup1\n      revert\n    tag_19:\n      pop\n      tag_20\n      0x04\n      dup1\n      calldatasize\n      sub\n      dup2\n      add\n      swap1\n      tag_21\n      swap2\n      swap1\n      tag_22\n      jump\t// in\n    tag_21:\n      tag_23\n      jump\t// in\n    tag_20:\n      mload(0x40)\n      tag_24\n      swap2\n      swap1\n      tag_25\n      jump\t// in\n    tag_24:\n      mload(0x40)\n      dup1\n      swap2\n      sub\n      swap1\n      return\n        /* \"Campaign.sol\":2405:2498  function getRequestCount() public view returns (uint) {... */\n    tag_4:\n      callvalue\n      dup1\n      iszero\n      tag_26\n      jumpi\n      0x00\n      dup1\n      revert\n    tag_26:\n      pop\n      tag_27\n      tag_28\n      jump\t// in\n    tag_27:\n      mload(0x40)\n      tag_29\n      swap2\n      swap1\n      tag_30\n      jump\t// in\n    tag_29:\n      mload(0x40)\n      dup1\n      swap2\n      sub\n      swap1\n      return\n        /* \"Campaign.sol\":2195:2400  function getSummary() public view returns(uint,uint, uint, uint, address ) {... */\n    tag_5:\n      callvalue\n      dup1\n      iszero\n      tag_31\n      jumpi\n      0x00\n      dup1\n      revert\n    tag_31:\n      pop\n      tag_32\n      tag_33\n      jump\t// in\n    tag_32:\n      mload(0x40)\n      tag_34\n      swap6\n      swap5\n      swap4\n      swap3\n      swap2\n      swap1\n      tag_35\n      jump\t// in\n    tag_34:\n      mload(0x40)\n      dup1\n      swap2\n      sub\n      swap1\n      return\n        /* \"Campaign.sol\":681:703  address public manager */\n    tag_6:\n      callvalue\n      dup1\n      iszero\n      tag_36\n      jumpi\n      0x00\n      dup1\n      revert\n    tag_36:\n      pop\n      tag_37\n      tag_38\n      jump\t// in\n    tag_37:\n      mload(0x40)\n      tag_39\n      swap2\n      swap1\n      tag_40\n      jump\t// in\n    tag_39:\n      mload(0x40)\n      dup1\n      swap2\n      sub\n      swap1\n      return\n        /* \"Campaign.sol\":650:675  Request[] public requests */\n    tag_7:\n      callvalue\n      dup1\n      iszero\n      tag_41\n      jumpi\n      0x00\n      dup1\n      revert\n    tag_41:\n      pop\n      tag_42\n      0x04\n      dup1\n      calldatasize\n      sub\n      dup2\n      add\n      swap1\n      tag_43\n      swap2\n      swap1\n      tag_17\n      jump\t// in\n    tag_43:\n      tag_44\n      jump\t// in\n    tag_42:\n      mload(0x40)\n      tag_45\n      swap6\n      swap5\n      swap4\n      swap3\n      swap2\n      swap1\n      tag_46\n      jump\t// in\n    tag_45:\n      mload(0x40)\n      dup1\n      swap2\n      sub\n      swap1\n      return\n        /* \"Campaign.sol\":793:819  uint public approversCount */\n    tag_8:\n      callvalue\n      dup1\n      iszero\n      tag_47\n      jumpi\n      0x00\n      dup1\n      revert\n    tag_47:\n      pop\n      tag_48\n      tag_49\n      jump\t// in\n    tag_48:\n      mload(0x40)\n      tag_50\n      swap2\n      swap1\n      tag_30\n      jump\t// in\n    tag_50:\n      mload(0x40)\n      dup1\n      swap2\n      sub\n      swap1\n      return\n        /* \"Campaign.sol\":1195:1598  function createRequest(string memory _description, uint _value, address payable _recipient) ... */\n    tag_9:\n      callvalue\n      dup1\n      iszero\n      tag_51\n      jumpi\n      0x00\n      dup1\n      revert\n    tag_51:\n      pop\n      tag_52\n      0x04\n      dup1\n      calldatasize\n      sub\n      dup2\n      add\n      swap1\n      tag_53\n      swap2\n      swap1\n      tag_54\n      jump\t// in\n    tag_53:\n      tag_55\n      jump\t// in\n    tag_52:\n      stop\n        /* \"Campaign.sol\":709:740  uint public minimumContribution */\n    tag_10:\n      callvalue\n      dup1\n      iszero\n      tag_56\n      jumpi\n      0x00\n      dup1\n      revert\n    tag_56:\n      pop\n      tag_57\n      tag_58\n      jump\t// in\n    tag_57:\n      mload(0x40)\n      tag_59\n      swap2\n      swap1\n      tag_30\n      jump\t// in\n    tag_59:\n      mload(0x40)\n      dup1\n      swap2\n      sub\n      swap1\n      return\n        /* \"Campaign.sol\":1033:1190  function contribute() public payable {... */\n    tag_11:\n      tag_60\n      tag_61\n      jump\t// in\n    tag_60:\n      stop\n        /* \"Campaign.sol\":1604:1885  function approveRequest(uint index) public {... */\n    tag_12:\n      callvalue\n      dup1\n      iszero\n      tag_62\n      jumpi\n      0x00\n      dup1\n      revert\n    tag_62:\n      pop\n      tag_63\n      0x04\n      dup1\n      calldatasize\n      sub\n      dup2\n      add\n      swap1\n      tag_64\n      swap2\n      swap1\n      tag_17\n      jump\t// in\n    tag_64:\n      tag_65\n      jump\t// in\n    tag_63:\n      stop\n        /* \"Campaign.sol\":1890:2189  function finalizeRequest(uint index) public restricted {... */\n    tag_18:\n        /* \"Campaign.sol\":879:886  manager */\n      0x01\n      0x00\n      swap1\n      sload\n      swap1\n      0x0100\n      exp\n      swap1\n      div\n      0xffffffffffffffffffffffffffffffffffffffff\n      and\n        /* \"Campaign.sol\":865:886  msg.sender == manager */\n      0xffffffffffffffffffffffffffffffffffffffff\n      and\n        /* \"Campaign.sol\":865:875  msg.sender */\n      caller\n        /* \"Campaign.sol\":865:886  msg.sender == manager */\n      0xffffffffffffffffffffffffffffffffffffffff\n      and\n      eq\n        /* \"Campaign.sol\":857:887  require(msg.sender == manager) */\n      tag_67\n      jumpi\n      0x00\n      dup1\n      revert\n    tag_67:\n        /* \"Campaign.sol\":1955:1978  Request storage request */\n      0x00\n        /* \"Campaign.sol\":1981:1989  requests */\n      dup1\n        /* \"Campaign.sol\":1990:1995  index */\n      dup3\n        /* \"Campaign.sol\":1981:1996  requests[index] */\n      dup2\n      sload\n      dup2\n      lt\n      tag_69\n      jumpi\n      tag_70\n      tag_71\n      jump\t// in\n    tag_70:\n    tag_69:\n      swap1\n      0x00\n      mstore\n      keccak256(0x00, 0x20)\n      swap1\n      0x05\n      mul\n      add\n        /* \"Campaign.sol\":1955:1996  Request storage request = requests[index] */\n      swap1\n      pop\n        /* \"Campaign.sol\":2061:2062  2 */\n      0x02\n        /* \"Campaign.sol\":2046:2060  approversCount */\n      sload(0x04)\n        /* \"Campaign.sol\":2046:2062  approversCount/2 */\n      tag_73\n      swap2\n      swap1\n      tag_74\n      jump\t// in\n    tag_73:\n        /* \"Campaign.sol\":2014:2022  requests */\n      0x00\n        /* \"Campaign.sol\":2023:2028  index */\n      dup4\n        /* \"Campaign.sol\":2014:2029  requests[index] */\n      dup2\n      sload\n      dup2\n      lt\n      tag_75\n      jumpi\n      tag_76\n      tag_71\n      jump\t// in\n    tag_76:\n    tag_75:\n      swap1\n      0x00\n      mstore\n      keccak256(0x00, 0x20)\n      swap1\n      0x05\n      mul\n      add\n        /* \"Campaign.sol\":2014:2043  requests[index].approvalCount */\n      0x03\n      add\n      sload\n        /* \"Campaign.sol\":2014:2062  requests[index].approvalCount > approversCount/2 */\n      gt\n        /* \"Campaign.sol\":2006:2063  require(requests[index].approvalCount > approversCount/2) */\n      tag_78\n      jumpi\n      0x00\n      dup1\n      revert\n    tag_78:\n        /* \"Campaign.sol\":2081:2088  request */\n      dup1\n        /* \"Campaign.sol\":2081:2097  request.complete */\n      0x02\n      add\n      0x14\n      swap1\n      sload\n      swap1\n      0x0100\n      exp\n      swap1\n      div\n      0xff\n      and\n        /* \"Campaign.sol\":2073:2098  require(request.complete) */\n      tag_79\n      jumpi\n      0x00\n      dup1\n      revert\n    tag_79:\n        /* \"Campaign.sol\":2108:2115  request */\n      dup1\n        /* \"Campaign.sol\":2108:2125  request.recipient */\n      0x02\n      add\n      0x00\n      swap1\n      sload\n      swap1\n      0x0100\n      exp\n      swap1\n      div\n      0xffffffffffffffffffffffffffffffffffffffff\n      and\n        /* \"Campaign.sol\":2108:2134  request.recipient.transfer */\n      0xffffffffffffffffffffffffffffffffffffffff\n      and\n        /* \"Campaign.sol\":2108:2149  request.recipient.transfer(request.value) */\n      0x08fc\n        /* \"Campaign.sol\":2135:2142  request */\n      dup3\n        /* \"Campaign.sol\":2135:2148  request.value */\n      0x01\n      add\n      sload\n        /* \"Campaign.sol\":2108:2149  request.recipient.transfer(request.value) */\n      swap1\n      dup2\n      iszero\n      mul\n      swap1\n      mload(0x40)\n      0x00\n      mload(0x40)\n      dup1\n      dup4\n      sub\n      dup2\n      dup6\n      dup9\n      dup9\n      call\n      swap4\n      pop\n      pop\n      pop\n      pop\n      iszero\n      dup1\n      iszero\n      tag_81\n      jumpi\n      returndatasize\n      0x00\n      dup1\n      returndatacopy\n      revert(0x00, returndatasize)\n    tag_81:\n      pop\n        /* \"Campaign.sol\":2178:2182  true */\n      0x01\n        /* \"Campaign.sol\":2159:2166  request */\n      dup2\n        /* \"Campaign.sol\":2159:2175  request.complete */\n      0x02\n      add\n      0x14\n        /* \"Campaign.sol\":2159:2182  request.complete = true */\n      0x0100\n      exp\n      dup2\n      sload\n      dup2\n      0xff\n      mul\n      not\n      and\n      swap1\n      dup4\n      iszero\n      iszero\n      mul\n      or\n      swap1\n      sstore\n      pop\n        /* \"Campaign.sol\":1945:2189  {... */\n      pop\n        /* \"Campaign.sol\":1890:2189  function finalizeRequest(uint index) public restricted {... */\n      pop\n      jump\t// out\n        /* \"Campaign.sol\":746:787  mapping(address => bool) public approvers */\n    tag_23:\n      mstore(0x20, 0x03)\n      dup1\n      0x00\n      mstore\n      keccak256(0x00, 0x40)\n      0x00\n      swap2\n      pop\n      sload\n      swap1\n      0x0100\n      exp\n      swap1\n      div\n      0xff\n      and\n      dup2\n      jump\t// out\n        /* \"Campaign.sol\":2405:2498  function getRequestCount() public view returns (uint) {... */\n    tag_28:\n        /* \"Campaign.sol\":2453:2457  uint */\n      0x00\n        /* \"Campaign.sol\":2476:2484  requests */\n      dup1\n        /* \"Campaign.sol\":2476:2491  requests.length */\n      dup1\n      sload\n      swap1\n      pop\n        /* \"Campaign.sol\":2469:2491  return requests.length */\n      swap1\n      pop\n        /* \"Campaign.sol\":2405:2498  function getRequestCount() public view returns (uint) {... */\n      swap1\n      jump\t// out\n        /* \"Campaign.sol\":2195:2400  function getSummary() public view returns(uint,uint, uint, uint, address ) {... */\n    tag_33:\n        /* \"Campaign.sol\":2237:2241  uint */\n      0x00\n        /* \"Campaign.sol\":2242:2246  uint */\n      dup1\n        /* \"Campaign.sol\":2248:2252  uint */\n      0x00\n        /* \"Campaign.sol\":2254:2258  uint */\n      dup1\n        /* \"Campaign.sol\":2260:2267  address */\n      0x00\n        /* \"Campaign.sol\":2300:2319  minimumContribution */\n      sload(0x02)\n        /* \"Campaign.sol\":2321:2342  address(this).balance */\n      selfbalance\n        /* \"Campaign.sol\":2344:2352  requests */\n      0x00\n        /* \"Campaign.sol\":2344:2359  requests.length */\n      dup1\n      sload\n      swap1\n      pop\n        /* \"Campaign.sol\":2360:2374  approversCount */\n      sload(0x04)\n        /* \"Campaign.sol\":2376:2383  manager */\n      0x01\n      0x00\n      swap1\n      sload\n      swap1\n      0x0100\n      exp\n      swap1\n      div\n      0xffffffffffffffffffffffffffffffffffffffff\n      and\n        /* \"Campaign.sol\":2280:2393  return(... */\n      swap5\n      pop\n      swap5\n      pop\n      swap5\n      pop\n      swap5\n      pop\n      swap5\n      pop\n        /* \"Campaign.sol\":2195:2400  function getSummary() public view returns(uint,uint, uint, uint, address ) {... */\n      swap1\n      swap2\n      swap3\n      swap4\n      swap5\n      jump\t// out\n        /* \"Campaign.sol\":681:703  address public manager */\n    tag_38:\n      0x01\n      0x00\n      swap1\n      sload\n      swap1\n      0x0100\n      exp\n      swap1\n      div\n      0xffffffffffffffffffffffffffffffffffffffff\n      and\n      dup2\n      jump\t// out\n        /* \"Campaign.sol\":650:675  Request[] public requests */\n    tag_44:\n      0x00\n      dup2\n      dup2\n      sload\n      dup2\n      lt\n      tag_84\n      jumpi\n      0x00\n      dup1\n      revert\n    tag_84:\n      swap1\n      0x00\n      mstore\n      keccak256(0x00, 0x20)\n      swap1\n      0x05\n      mul\n      add\n      0x00\n      swap2\n      pop\n      swap1\n      pop\n      dup1\n      0x00\n      add\n      dup1\n      sload\n      tag_86\n      swap1\n      tag_87\n      jump\t// in\n    tag_86:\n      dup1\n      0x1f\n      add\n      0x20\n      dup1\n      swap2\n      div\n      mul\n      0x20\n      add\n      mload(0x40)\n      swap1\n      dup2\n      add\n      0x40\n      mstore\n      dup1\n      swap3\n      swap2\n      swap1\n      dup2\n      dup2\n      mstore\n      0x20\n      add\n      dup3\n      dup1\n      sload\n      tag_88\n      swap1\n      tag_87\n      jump\t// in\n    tag_88:\n      dup1\n      iszero\n      tag_89\n      jumpi\n      dup1\n      0x1f\n      lt\n      tag_90\n      jumpi\n      0x0100\n      dup1\n      dup4\n      sload\n      div\n      mul\n      dup4\n      mstore\n      swap2\n      0x20\n      add\n      swap2\n      jump(tag_89)\n    tag_90:\n      dup3\n      add\n      swap2\n      swap1\n      0x00\n      mstore\n      keccak256(0x00, 0x20)\n      swap1\n    tag_91:\n      dup2\n      sload\n      dup2\n      mstore\n      swap1\n      0x01\n      add\n      swap1\n      0x20\n      add\n      dup1\n      dup4\n      gt\n      tag_91\n      jumpi\n      dup3\n      swap1\n      sub\n      0x1f\n      and\n      dup3\n      add\n      swap2\n    tag_89:\n      pop\n      pop\n      pop\n      pop\n      pop\n      swap1\n      dup1\n      0x01\n      add\n      sload\n      swap1\n      dup1\n      0x02\n      add\n      0x00\n      swap1\n      sload\n      swap1\n      0x0100\n      exp\n      swap1\n      div\n      0xffffffffffffffffffffffffffffffffffffffff\n      and\n      swap1\n      dup1\n      0x02\n      add\n      0x14\n      swap1\n      sload\n      swap1\n      0x0100\n      exp\n      swap1\n      div\n      0xff\n      and\n      swap1\n      dup1\n      0x03\n      add\n      sload\n      swap1\n      pop\n      dup6\n      jump\t// out\n        /* \"Campaign.sol\":793:819  uint public approversCount */\n    tag_49:\n      sload(0x04)\n      dup2\n      jump\t// out\n        /* \"Campaign.sol\":1195:1598  function createRequest(string memory _description, uint _value, address payable _recipient) ... */\n    tag_55:\n        /* \"Campaign.sol\":879:886  manager */\n      0x01\n      0x00\n      swap1\n      sload\n      swap1\n      0x0100\n      exp\n      swap1\n      div\n      0xffffffffffffffffffffffffffffffffffffffff\n      and\n        /* \"Campaign.sol\":865:886  msg.sender == manager */\n      0xffffffffffffffffffffffffffffffffffffffff\n      and\n        /* \"Campaign.sol\":865:875  msg.sender */\n      caller\n        /* \"Campaign.sol\":865:886  msg.sender == manager */\n      0xffffffffffffffffffffffffffffffffffffffff\n      and\n      eq\n        /* \"Campaign.sol\":857:887  require(msg.sender == manager) */\n      tag_93\n      jumpi\n      0x00\n      dup1\n      revert\n    tag_93:\n        /* \"Campaign.sol\":1337:1363  Request storage newRequest */\n      0x00\n        /* \"Campaign.sol\":1366:1374  requests */\n      dup1\n        /* \"Campaign.sol\":1366:1381  requests.push() */\n      0x01\n      dup2\n      0x01\n      dup2\n      sload\n      add\n      dup1\n      dup3\n      sstore\n      dup1\n      swap2\n      pop\n      pop\n      sub\n      swap1\n      0x00\n      mstore\n      keccak256(0x00, 0x20)\n      swap1\n      0x05\n      mul\n      add\n        /* \"Campaign.sol\":1337:1381  Request storage newRequest = requests.push() */\n      swap1\n      pop\n        /* \"Campaign.sol\":1417:1429  _description */\n      dup4\n        /* \"Campaign.sol\":1391:1401  newRequest */\n      dup2\n        /* \"Campaign.sol\":1391:1413  newRequest.description */\n      0x00\n      add\n        /* \"Campaign.sol\":1391:1429  newRequest.description  = _description */\n      swap1\n      dup2\n      tag_96\n      swap2\n      swap1\n      tag_97\n      jump\t// in\n    tag_96:\n      pop\n        /* \"Campaign.sol\":1458:1464  _value */\n      dup3\n        /* \"Campaign.sol\":1439:1449  newRequest */\n      dup2\n        /* \"Campaign.sol\":1439:1455  newRequest.value */\n      0x01\n      add\n        /* \"Campaign.sol\":1439:1464  newRequest.value = _value */\n      dup2\n      swap1\n      sstore\n      pop\n        /* \"Campaign.sol\":1497:1507  _recipient */\n      dup2\n        /* \"Campaign.sol\":1474:1484  newRequest */\n      dup2\n        /* \"Campaign.sol\":1474:1494  newRequest.recipient */\n      0x02\n      add\n      0x00\n        /* \"Campaign.sol\":1474:1507  newRequest.recipient = _recipient */\n      0x0100\n      exp\n      dup2\n      sload\n      dup2\n      0xffffffffffffffffffffffffffffffffffffffff\n      mul\n      not\n      and\n      swap1\n      dup4\n      0xffffffffffffffffffffffffffffffffffffffff\n      and\n      mul\n      or\n      swap1\n      sstore\n      pop\n        /* \"Campaign.sol\":1539:1544  false */\n      0x00\n        /* \"Campaign.sol\":1517:1527  newRequest */\n      dup2\n        /* \"Campaign.sol\":1517:1536  newRequest.complete */\n      0x02\n      add\n      0x14\n        /* \"Campaign.sol\":1517:1544  newRequest.complete = false */\n      0x0100\n      exp\n      dup2\n      sload\n      dup2\n      0xff\n      mul\n      not\n      and\n      swap1\n      dup4\n      iszero\n      iszero\n      mul\n      or\n      swap1\n      sstore\n      pop\n        /* \"Campaign.sol\":1581:1582  0 */\n      0x00\n        /* \"Campaign.sol\":1554:1564  newRequest */\n      dup2\n        /* \"Campaign.sol\":1554:1578  newRequest.approvalCount */\n      0x03\n      add\n        /* \"Campaign.sol\":1554:1582  newRequest.approvalCount = 0 */\n      dup2\n      swap1\n      sstore\n      pop\n        /* \"Campaign.sol\":1315:1598  {   ... */\n      pop\n        /* \"Campaign.sol\":1195:1598  function createRequest(string memory _description, uint _value, address payable _recipient) ... */\n      pop\n      pop\n      pop\n      jump\t// out\n        /* \"Campaign.sol\":709:740  uint public minimumContribution */\n    tag_58:\n      sload(0x02)\n      dup2\n      jump\t// out\n        /* \"Campaign.sol\":1033:1190  function contribute() public payable {... */\n    tag_61:\n        /* \"Campaign.sol\":1100:1119  minimumContribution */\n      sload(0x02)\n        /* \"Campaign.sol\":1088:1097  msg.value */\n      callvalue\n        /* \"Campaign.sol\":1088:1119  msg.value > minimumContribution */\n      gt\n        /* \"Campaign.sol\":1080:1120  require(msg.value > minimumContribution) */\n      tag_99\n      jumpi\n      0x00\n      dup1\n      revert\n    tag_99:\n        /* \"Campaign.sol\":1153:1157  true */\n      0x01\n        /* \"Campaign.sol\":1130:1139  approvers */\n      0x03\n        /* \"Campaign.sol\":1130:1151  approvers[msg.sender] */\n      0x00\n        /* \"Campaign.sol\":1140:1150  msg.sender */\n      caller\n        /* \"Campaign.sol\":1130:1151  approvers[msg.sender] */\n      0xffffffffffffffffffffffffffffffffffffffff\n      and\n      0xffffffffffffffffffffffffffffffffffffffff\n      and\n      dup2\n      mstore\n      0x20\n      add\n      swap1\n      dup2\n      mstore\n      0x20\n      add\n      0x00\n      keccak256\n      0x00\n        /* \"Campaign.sol\":1130:1157  approvers[msg.sender]= true */\n      0x0100\n      exp\n      dup2\n      sload\n      dup2\n      0xff\n      mul\n      not\n      and\n      swap1\n      dup4\n      iszero\n      iszero\n      mul\n      or\n      swap1\n      sstore\n      pop\n        /* \"Campaign.sol\":1167:1181  approversCount */\n      0x04\n      0x00\n        /* \"Campaign.sol\":1167:1183  approversCount++ */\n      dup2\n      sload\n      dup1\n      swap3\n      swap2\n      swap1\n      tag_100\n      swap1\n      tag_101\n      jump\t// in\n    tag_100:\n      swap2\n      swap1\n      pop\n      sstore\n      pop\n        /* \"Campaign.sol\":1033:1190  function contribute() public payable {... */\n      jump\t// out\n        /* \"Campaign.sol\":1604:1885  function approveRequest(uint index) public {... */\n    tag_65:\n        /* \"Campaign.sol\":1658:1681  Request storage request */\n      0x00\n        /* \"Campaign.sol\":1684:1692  requests */\n      dup1\n        /* \"Campaign.sol\":1693:1698  index */\n      dup3\n        /* \"Campaign.sol\":1684:1699  requests[index] */\n      dup2\n      sload\n      dup2\n      lt\n      tag_103\n      jumpi\n      tag_104\n      tag_71\n      jump\t// in\n    tag_104:\n    tag_103:\n      swap1\n      0x00\n      mstore\n      keccak256(0x00, 0x20)\n      swap1\n      0x05\n      mul\n      add\n        /* \"Campaign.sol\":1658:1699  Request storage request = requests[index] */\n      swap1\n      pop\n        /* \"Campaign.sol\":1718:1727  approvers */\n      0x03\n        /* \"Campaign.sol\":1718:1739  approvers[msg.sender] */\n      0x00\n        /* \"Campaign.sol\":1728:1738  msg.sender */\n      caller\n        /* \"Campaign.sol\":1718:1739  approvers[msg.sender] */\n      0xffffffffffffffffffffffffffffffffffffffff\n      and\n      0xffffffffffffffffffffffffffffffffffffffff\n      and\n      dup2\n      mstore\n      0x20\n      add\n      swap1\n      dup2\n      mstore\n      0x20\n      add\n      0x00\n      keccak256\n      0x00\n      swap1\n      sload\n      swap1\n      0x0100\n      exp\n      swap1\n      div\n      0xff\n      and\n        /* \"Campaign.sol\":1710:1740  require(approvers[msg.sender]) */\n      tag_106\n      jumpi\n      0x00\n      dup1\n      revert\n    tag_106:\n        /* \"Campaign.sol\":1759:1767  requests */\n      0x00\n        /* \"Campaign.sol\":1768:1773  index */\n      dup3\n        /* \"Campaign.sol\":1759:1774  requests[index] */\n      dup2\n      sload\n      dup2\n      lt\n      tag_107\n      jumpi\n      tag_108\n      tag_71\n      jump\t// in\n    tag_108:\n    tag_107:\n      swap1\n      0x00\n      mstore\n      keccak256(0x00, 0x20)\n      swap1\n      0x05\n      mul\n      add\n        /* \"Campaign.sol\":1759:1784  requests[index].approvals */\n      0x04\n      add\n        /* \"Campaign.sol\":1759:1796  requests[index].approvals[msg.sender] */\n      0x00\n        /* \"Campaign.sol\":1785:1795  msg.sender */\n      caller\n        /* \"Campaign.sol\":1759:1796  requests[index].approvals[msg.sender] */\n      0xffffffffffffffffffffffffffffffffffffffff\n      and\n      0xffffffffffffffffffffffffffffffffffffffff\n      and\n      dup2\n      mstore\n      0x20\n      add\n      swap1\n      dup2\n      mstore\n      0x20\n      add\n      0x00\n      keccak256\n      0x00\n      swap1\n      sload\n      swap1\n      0x0100\n      exp\n      swap1\n      div\n      0xff\n      and\n        /* \"Campaign.sol\":1758:1796  !requests[index].approvals[msg.sender] */\n      iszero\n        /* \"Campaign.sol\":1750:1797  require(!requests[index].approvals[msg.sender]) */\n      tag_110\n      jumpi\n      0x00\n      dup1\n      revert\n    tag_110:\n        /* \"Campaign.sol\":1840:1844  true */\n      0x01\n        /* \"Campaign.sol\":1808:1815  request */\n      dup2\n        /* \"Campaign.sol\":1808:1825  request.approvals */\n      0x04\n      add\n        /* \"Campaign.sol\":1808:1837  request.approvals[msg.sender] */\n      0x00\n        /* \"Campaign.sol\":1826:1836  msg.sender */\n      caller\n        /* \"Campaign.sol\":1808:1837  request.approvals[msg.sender] */\n      0xffffffffffffffffffffffffffffffffffffffff\n      and\n      0xffffffffffffffffffffffffffffffffffffffff\n      and\n      dup2\n      mstore\n      0x20\n      add\n      swap1\n      dup2\n      mstore\n      0x20\n      add\n      0x00\n      keccak256\n      0x00\n        /* \"Campaign.sol\":1808:1844  request.approvals[msg.sender] = true */\n      0x0100\n      exp\n      dup2\n      sload\n      dup2\n      0xff\n      mul\n      not\n      and\n      swap1\n      dup4\n      iszero\n      iszero\n      mul\n      or\n      swap1\n      sstore\n      pop\n        /* \"Campaign.sol\":1854:1861  request */\n      dup1\n        /* \"Campaign.sol\":1854:1875  request.approvalCount */\n      0x03\n      add\n      0x00\n        /* \"Campaign.sol\":1854:1877  request.approvalCount++ */\n      dup2\n      sload\n      dup1\n      swap3\n      swap2\n      swap1\n      tag_111\n      swap1\n      tag_101\n      jump\t// in\n    tag_111:\n      swap2\n      swap1\n      pop\n      sstore\n      pop\n        /* \"Campaign.sol\":1647:1885  {... */\n      pop\n        /* \"Campaign.sol\":1604:1885  function approveRequest(uint index) public {... */\n      pop\n      jump\t// out\n        /* \"#utility.yul\":7:82   */\n    tag_112:\n        /* \"#utility.yul\":40:46   */\n      0x00\n        /* \"#utility.yul\":73:75   */\n      0x40\n        /* \"#utility.yul\":67:76   */\n      mload\n        /* \"#utility.yul\":57:76   */\n      swap1\n      pop\n        /* \"#utility.yul\":7:82   */\n      swap1\n      jump\t// out\n        /* \"#utility.yul\":88:205   */\n    tag_113:\n        /* \"#utility.yul\":197:198   */\n      0x00\n        /* \"#utility.yul\":194:195   */\n      dup1\n        /* \"#utility.yul\":187:199   */\n      revert\n        /* \"#utility.yul\":211:328   */\n    tag_114:\n        /* \"#utility.yul\":320:321   */\n      0x00\n        /* \"#utility.yul\":317:318   */\n      dup1\n        /* \"#utility.yul\":310:322   */\n      revert\n        /* \"#utility.yul\":334:411   */\n    tag_115:\n        /* \"#utility.yul\":371:378   */\n      0x00\n        /* \"#utility.yul\":400:405   */\n      dup2\n        /* \"#utility.yul\":389:405   */\n      swap1\n      pop\n        /* \"#utility.yul\":334:411   */\n      swap2\n      swap1\n      pop\n      jump\t// out\n        /* \"#utility.yul\":417:539   */\n    tag_116:\n        /* \"#utility.yul\":490:514   */\n      tag_168\n        /* \"#utility.yul\":508:513   */\n      dup2\n        /* \"#utility.yul\":490:514   */\n      tag_115\n      jump\t// in\n    tag_168:\n        /* \"#utility.yul\":483:488   */\n      dup2\n        /* \"#utility.yul\":480:515   */\n      eq\n        /* \"#utility.yul\":470:533   */\n      tag_169\n      jumpi\n        /* \"#utility.yul\":529:530   */\n      0x00\n        /* \"#utility.yul\":526:527   */\n      dup1\n        /* \"#utility.yul\":519:531   */\n      revert\n        /* \"#utility.yul\":470:533   */\n    tag_169:\n        /* \"#utility.yul\":417:539   */\n      pop\n      jump\t// out\n        /* \"#utility.yul\":545:684   */\n    tag_117:\n        /* \"#utility.yul\":591:596   */\n      0x00\n        /* \"#utility.yul\":629:635   */\n      dup2\n        /* \"#utility.yul\":616:636   */\n      calldataload\n        /* \"#utility.yul\":607:636   */\n      swap1\n      pop\n        /* \"#utility.yul\":645:678   */\n      tag_171\n        /* \"#utility.yul\":672:677   */\n      dup2\n        /* \"#utility.yul\":645:678   */\n      tag_116\n      jump\t// in\n    tag_171:\n        /* \"#utility.yul\":545:684   */\n      swap3\n      swap2\n      pop\n      pop\n      jump\t// out\n        /* \"#utility.yul\":690:1019   */\n    tag_17:\n        /* \"#utility.yul\":749:755   */\n      0x00\n        /* \"#utility.yul\":798:800   */\n      0x20\n        /* \"#utility.yul\":786:795   */\n      dup3\n        /* \"#utility.yul\":777:784   */\n      dup5\n        /* \"#utility.yul\":773:796   */\n      sub\n        /* \"#utility.yul\":769:801   */\n      slt\n        /* \"#utility.yul\":766:885   */\n      iszero\n      tag_173\n      jumpi\n        /* \"#utility.yul\":804:883   */\n      tag_174\n      tag_113\n      jump\t// in\n    tag_174:\n        /* \"#utility.yul\":766:885   */\n    tag_173:\n        /* \"#utility.yul\":924:925   */\n      0x00\n        /* \"#utility.yul\":949:1002   */\n      tag_175\n        /* \"#utility.yul\":994:1001   */\n      dup5\n        /* \"#utility.yul\":985:991   */\n      dup3\n        /* \"#utility.yul\":974:983   */\n      dup6\n        /* \"#utility.yul\":970:992   */\n      add\n        /* \"#utility.yul\":949:1002   */\n      tag_117\n      jump\t// in\n    tag_175:\n        /* \"#utility.yul\":939:1002   */\n      swap2\n      pop\n        /* \"#utility.yul\":895:1012   */\n      pop\n        /* \"#utility.yul\":690:1019   */\n      swap3\n      swap2\n      pop\n      pop\n      jump\t// out\n        /* \"#utility.yul\":1025:1151   */\n    tag_118:\n        /* \"#utility.yul\":1062:1069   */\n      0x00\n        /* \"#utility.yul\":1102:1144   */\n      0xffffffffffffffffffffffffffffffffffffffff\n        /* \"#utility.yul\":1095:1100   */\n      dup3\n        /* \"#utility.yul\":1091:1145   */\n      and\n        /* \"#utility.yul\":1080:1145   */\n      swap1\n      pop\n        /* \"#utility.yul\":1025:1151   */\n      swap2\n      swap1\n      pop\n      jump\t// out\n        /* \"#utility.yul\":1157:1253   */\n    tag_119:\n        /* \"#utility.yul\":1194:1201   */\n      0x00\n        /* \"#utility.yul\":1223:1247   */\n      tag_178\n        /* \"#utility.yul\":1241:1246   */\n      dup3\n        /* \"#utility.yul\":1223:1247   */\n      tag_118\n      jump\t// in\n    tag_178:\n        /* \"#utility.yul\":1212:1247   */\n      swap1\n      pop\n        /* \"#utility.yul\":1157:1253   */\n      swap2\n      swap1\n      pop\n      jump\t// out\n        /* \"#utility.yul\":1259:1381   */\n    tag_120:\n        /* \"#utility.yul\":1332:1356   */\n      tag_180\n        /* \"#utility.yul\":1350:1355   */\n      dup2\n        /* \"#utility.yul\":1332:1356   */\n      tag_119\n      jump\t// in\n    tag_180:\n        /* \"#utility.yul\":1325:1330   */\n      dup2\n        /* \"#utility.yul\":1322:1357   */\n      eq\n        /* \"#utility.yul\":1312:1375   */\n      tag_181\n      jumpi\n        /* \"#utility.yul\":1371:1372   */\n      0x00\n        /* \"#utility.yul\":1368:1369   */\n      dup1\n        /* \"#utility.yul\":1361:1373   */\n      revert\n        /* \"#utility.yul\":1312:1375   */\n    tag_181:\n        /* \"#utility.yul\":1259:1381   */\n      pop\n      jump\t// out\n        /* \"#utility.yul\":1387:1526   */\n    tag_121:\n        /* \"#utility.yul\":1433:1438   */\n      0x00\n        /* \"#utility.yul\":1471:1477   */\n      dup2\n        /* \"#utility.yul\":1458:1478   */\n      calldataload\n        /* \"#utility.yul\":1449:1478   */\n      swap1\n      pop\n        /* \"#utility.yul\":1487:1520   */\n      tag_183\n        /* \"#utility.yul\":1514:1519   */\n      dup2\n        /* \"#utility.yul\":1487:1520   */\n      tag_120\n      jump\t// in\n    tag_183:\n        /* \"#utility.yul\":1387:1526   */\n      swap3\n      swap2\n      pop\n      pop\n      jump\t// out\n        /* \"#utility.yul\":1532:1861   */\n    tag_22:\n        /* \"#utility.yul\":1591:1597   */\n      0x00\n        /* \"#utility.yul\":1640:1642   */\n      0x20\n        /* \"#utility.yul\":1628:1637   */\n      dup3\n        /* \"#utility.yul\":1619:1626   */\n      dup5\n        /* \"#utility.yul\":1615:1638   */\n      sub\n        /* \"#utility.yul\":1611:1643   */\n      slt\n        /* \"#utility.yul\":1608:1727   */\n      iszero\n      tag_185\n      jumpi\n        /* \"#utility.yul\":1646:1725   */\n      tag_186\n      tag_113\n      jump\t// in\n    tag_186:\n        /* \"#utility.yul\":1608:1727   */\n    tag_185:\n        /* \"#utility.yul\":1766:1767   */\n      0x00\n        /* \"#utility.yul\":1791:1844   */\n      tag_187\n        /* \"#utility.yul\":1836:1843   */\n      dup5\n        /* \"#utility.yul\":1827:1833   */\n      dup3\n        /* \"#utility.yul\":1816:1825   */\n      dup6\n        /* \"#utility.yul\":1812:1834   */\n      add\n        /* \"#utility.yul\":1791:1844   */\n      tag_121\n      jump\t// in\n    tag_187:\n        /* \"#utility.yul\":1781:1844   */\n      swap2\n      pop\n        /* \"#utility.yul\":1737:1854   */\n      pop\n        /* \"#utility.yul\":1532:1861   */\n      swap3\n      swap2\n      pop\n      pop\n      jump\t// out\n        /* \"#utility.yul\":1867:1957   */\n    tag_122:\n        /* \"#utility.yul\":1901:1908   */\n      0x00\n        /* \"#utility.yul\":1944:1949   */\n      dup2\n        /* \"#utility.yul\":1937:1950   */\n      iszero\n        /* \"#utility.yul\":1930:1951   */\n      iszero\n        /* \"#utility.yul\":1919:1951   */\n      swap1\n      pop\n        /* \"#utility.yul\":1867:1957   */\n      swap2\n      swap1\n      pop\n      jump\t// out\n        /* \"#utility.yul\":1963:2072   */\n    tag_123:\n        /* \"#utility.yul\":2044:2065   */\n      tag_190\n        /* \"#utility.yul\":2059:2064   */\n      dup2\n        /* \"#utility.yul\":2044:2065   */\n      tag_122\n      jump\t// in\n    tag_190:\n        /* \"#utility.yul\":2039:2042   */\n      dup3\n        /* \"#utility.yul\":2032:2066   */\n      mstore\n        /* \"#utility.yul\":1963:2072   */\n      pop\n      pop\n      jump\t// out\n        /* \"#utility.yul\":2078:2288   */\n    tag_25:\n        /* \"#utility.yul\":2165:2169   */\n      0x00\n        /* \"#utility.yul\":2203:2205   */\n      0x20\n        /* \"#utility.yul\":2192:2201   */\n      dup3\n        /* \"#utility.yul\":2188:2206   */\n      add\n        /* \"#utility.yul\":2180:2206   */\n      swap1\n      pop\n        /* \"#utility.yul\":2216:2281   */\n      tag_192\n        /* \"#utility.yul\":2278:2279   */\n      0x00\n        /* \"#utility.yul\":2267:2276   */\n      dup4\n        /* \"#utility.yul\":2263:2280   */\n      add\n        /* \"#utility.yul\":2254:2260   */\n      dup5\n        /* \"#utility.yul\":2216:2281   */\n      tag_123\n      jump\t// in\n    tag_192:\n        /* \"#utility.yul\":2078:2288   */\n      swap3\n      swap2\n      pop\n      pop\n      jump\t// out\n        /* \"#utility.yul\":2294:2412   */\n    tag_124:\n        /* \"#utility.yul\":2381:2405   */\n      tag_194\n        /* \"#utility.yul\":2399:2404   */\n      dup2\n        /* \"#utility.yul\":2381:2405   */\n      tag_115\n      jump\t// in\n    tag_194:\n        /* \"#utility.yul\":2376:2379   */\n      dup3\n        /* \"#utility.yul\":2369:2406   */\n      mstore\n        /* \"#utility.yul\":2294:2412   */\n      pop\n      pop\n      jump\t// out\n        /* \"#utility.yul\":2418:2640   */\n    tag_30:\n        /* \"#utility.yul\":2511:2515   */\n      0x00\n        /* \"#utility.yul\":2549:2551   */\n      0x20\n        /* \"#utility.yul\":2538:2547   */\n      dup3\n        /* \"#utility.yul\":2534:2552   */\n      add\n        /* \"#utility.yul\":2526:2552   */\n      swap1\n      pop\n        /* \"#utility.yul\":2562:2633   */\n      tag_196\n        /* \"#utility.yul\":2630:2631   */\n      0x00\n        /* \"#utility.yul\":2619:2628   */\n      dup4\n        /* \"#utility.yul\":2615:2632   */\n      add\n        /* \"#utility.yul\":2606:2612   */\n      dup5\n        /* \"#utility.yul\":2562:2633   */\n      tag_124\n      jump\t// in\n    tag_196:\n        /* \"#utility.yul\":2418:2640   */\n      swap3\n      swap2\n      pop\n      pop\n      jump\t// out\n        /* \"#utility.yul\":2646:2764   */\n    tag_125:\n        /* \"#utility.yul\":2733:2757   */\n      tag_198\n        /* \"#utility.yul\":2751:2756   */\n      dup2\n        /* \"#utility.yul\":2733:2757   */\n      tag_119\n      jump\t// in\n    tag_198:\n        /* \"#utility.yul\":2728:2731   */\n      dup3\n        /* \"#utility.yul\":2721:2758   */\n      mstore\n        /* \"#utility.yul\":2646:2764   */\n      pop\n      pop\n      jump\t// out\n        /* \"#utility.yul\":2770:3434   */\n    tag_35:\n        /* \"#utility.yul\":2975:2979   */\n      0x00\n        /* \"#utility.yul\":3013:3016   */\n      0xa0\n        /* \"#utility.yul\":3002:3011   */\n      dup3\n        /* \"#utility.yul\":2998:3017   */\n      add\n        /* \"#utility.yul\":2990:3017   */\n      swap1\n      pop\n        /* \"#utility.yul\":3027:3098   */\n      tag_200\n        /* \"#utility.yul\":3095:3096   */\n      0x00\n        /* \"#utility.yul\":3084:3093   */\n      dup4\n        /* \"#utility.yul\":3080:3097   */\n      add\n        /* \"#utility.yul\":3071:3077   */\n      dup9\n        /* \"#utility.yul\":3027:3098   */\n      tag_124\n      jump\t// in\n    tag_200:\n        /* \"#utility.yul\":3108:3180   */\n      tag_201\n        /* \"#utility.yul\":3176:3178   */\n      0x20\n        /* \"#utility.yul\":3165:3174   */\n      dup4\n        /* \"#utility.yul\":3161:3179   */\n      add\n        /* \"#utility.yul\":3152:3158   */\n      dup8\n        /* \"#utility.yul\":3108:3180   */\n      tag_124\n      jump\t// in\n    tag_201:\n        /* \"#utility.yul\":3190:3262   */\n      tag_202\n        /* \"#utility.yul\":3258:3260   */\n      0x40\n        /* \"#utility.yul\":3247:3256   */\n      dup4\n        /* \"#utility.yul\":3243:3261   */\n      add\n        /* \"#utility.yul\":3234:3240   */\n      dup7\n        /* \"#utility.yul\":3190:3262   */\n      tag_124\n      jump\t// in\n    tag_202:\n        /* \"#utility.yul\":3272:3344   */\n      tag_203\n        /* \"#utility.yul\":3340:3342   */\n      0x60\n        /* \"#utility.yul\":3329:3338   */\n      dup4\n        /* \"#utility.yul\":3325:3343   */\n      add\n        /* \"#utility.yul\":3316:3322   */\n      dup6\n        /* \"#utility.yul\":3272:3344   */\n      tag_124\n      jump\t// in\n    tag_203:\n        /* \"#utility.yul\":3354:3427   */\n      tag_204\n        /* \"#utility.yul\":3422:3425   */\n      0x80\n        /* \"#utility.yul\":3411:3420   */\n      dup4\n        /* \"#utility.yul\":3407:3426   */\n      add\n        /* \"#utility.yul\":3398:3404   */\n      dup5\n        /* \"#utility.yul\":3354:3427   */\n      tag_125\n      jump\t// in\n    tag_204:\n        /* \"#utility.yul\":2770:3434   */\n      swap7\n      swap6\n      pop\n      pop\n      pop\n      pop\n      pop\n      pop\n      jump\t// out\n        /* \"#utility.yul\":3440:3662   */\n    tag_40:\n        /* \"#utility.yul\":3533:3537   */\n      0x00\n        /* \"#utility.yul\":3571:3573   */\n      0x20\n        /* \"#utility.yul\":3560:3569   */\n      dup3\n        /* \"#utility.yul\":3556:3574   */\n      add\n        /* \"#utility.yul\":3548:3574   */\n      swap1\n      pop\n        /* \"#utility.yul\":3584:3655   */\n      tag_206\n        /* \"#utility.yul\":3652:3653   */\n      0x00\n        /* \"#utility.yul\":3641:3650   */\n      dup4\n        /* \"#utility.yul\":3637:3654   */\n      add\n        /* \"#utility.yul\":3628:3634   */\n      dup5\n        /* \"#utility.yul\":3584:3655   */\n      tag_125\n      jump\t// in\n    tag_206:\n        /* \"#utility.yul\":3440:3662   */\n      swap3\n      swap2\n      pop\n      pop\n      jump\t// out\n        /* \"#utility.yul\":3668:3767   */\n    tag_126:\n        /* \"#utility.yul\":3720:3726   */\n      0x00\n        /* \"#utility.yul\":3754:3759   */\n      dup2\n        /* \"#utility.yul\":3748:3760   */\n      mload\n        /* \"#utility.yul\":3738:3760   */\n      swap1\n      pop\n        /* \"#utility.yul\":3668:3767   */\n      swap2\n      swap1\n      pop\n      jump\t// out\n        /* \"#utility.yul\":3773:3942   */\n    tag_127:\n        /* \"#utility.yul\":3857:3868   */\n      0x00\n        /* \"#utility.yul\":3891:3897   */\n      dup3\n        /* \"#utility.yul\":3886:3889   */\n      dup3\n        /* \"#utility.yul\":3879:3898   */\n      mstore\n        /* \"#utility.yul\":3931:3935   */\n      0x20\n        /* \"#utility.yul\":3926:3929   */\n      dup3\n        /* \"#utility.yul\":3922:3936   */\n      add\n        /* \"#utility.yul\":3907:3936   */\n      swap1\n      pop\n        /* \"#utility.yul\":3773:3942   */\n      swap3\n      swap2\n      pop\n      pop\n      jump\t// out\n        /* \"#utility.yul\":3948:4087   */\n    tag_128:\n        /* \"#utility.yul\":4037:4043   */\n      dup3\n        /* \"#utility.yul\":4032:4035   */\n      dup2\n        /* \"#utility.yul\":4027:4030   */\n      dup4\n        /* \"#utility.yul\":4021:4044   */\n      mcopy\n        /* \"#utility.yul\":4078:4079   */\n      0x00\n        /* \"#utility.yul\":4069:4075   */\n      dup4\n        /* \"#utility.yul\":4064:4067   */\n      dup4\n        /* \"#utility.yul\":4060:4076   */\n      add\n        /* \"#utility.yul\":4053:4080   */\n      mstore\n        /* \"#utility.yul\":3948:4087   */\n      pop\n      pop\n      pop\n      jump\t// out\n        /* \"#utility.yul\":4093:4195   */\n    tag_129:\n        /* \"#utility.yul\":4134:4140   */\n      0x00\n        /* \"#utility.yul\":4185:4187   */\n      0x1f\n        /* \"#utility.yul\":4181:4188   */\n      not\n        /* \"#utility.yul\":4176:4178   */\n      0x1f\n        /* \"#utility.yul\":4169:4174   */\n      dup4\n        /* \"#utility.yul\":4165:4179   */\n      add\n        /* \"#utility.yul\":4161:4189   */\n      and\n        /* \"#utility.yul\":4151:4189   */\n      swap1\n      pop\n        /* \"#utility.yul\":4093:4195   */\n      swap2\n      swap1\n      pop\n      jump\t// out\n        /* \"#utility.yul\":4201:4578   */\n    tag_130:\n        /* \"#utility.yul\":4289:4292   */\n      0x00\n        /* \"#utility.yul\":4317:4356   */\n      tag_212\n        /* \"#utility.yul\":4350:4355   */\n      dup3\n        /* \"#utility.yul\":4317:4356   */\n      tag_126\n      jump\t// in\n    tag_212:\n        /* \"#utility.yul\":4372:4443   */\n      tag_213\n        /* \"#utility.yul\":4436:4442   */\n      dup2\n        /* \"#utility.yul\":4431:4434   */\n      dup6\n        /* \"#utility.yul\":4372:4443   */\n      tag_127\n      jump\t// in\n    tag_213:\n        /* \"#utility.yul\":4365:4443   */\n      swap4\n      pop\n        /* \"#utility.yul\":4452:4517   */\n      tag_214\n        /* \"#utility.yul\":4510:4516   */\n      dup2\n        /* \"#utility.yul\":4505:4508   */\n      dup6\n        /* \"#utility.yul\":4498:4502   */\n      0x20\n        /* \"#utility.yul\":4491:4496   */\n      dup7\n        /* \"#utility.yul\":4487:4503   */\n      add\n        /* \"#utility.yul\":4452:4517   */\n      tag_128\n      jump\t// in\n    tag_214:\n        /* \"#utility.yul\":4542:4571   */\n      tag_215\n        /* \"#utility.yul\":4564:4570   */\n      dup2\n        /* \"#utility.yul\":4542:4571   */\n      tag_129\n      jump\t// in\n    tag_215:\n        /* \"#utility.yul\":4537:4540   */\n      dup5\n        /* \"#utility.yul\":4533:4572   */\n      add\n        /* \"#utility.yul\":4526:4572   */\n      swap2\n      pop\n        /* \"#utility.yul\":4293:4578   */\n      pop\n        /* \"#utility.yul\":4201:4578   */\n      swap3\n      swap2\n      pop\n      pop\n      jump\t// out\n        /* \"#utility.yul\":4584:4688   */\n    tag_131:\n        /* \"#utility.yul\":4629:4636   */\n      0x00\n        /* \"#utility.yul\":4658:4682   */\n      tag_217\n        /* \"#utility.yul\":4676:4681   */\n      dup3\n        /* \"#utility.yul\":4658:4682   */\n      tag_118\n      jump\t// in\n    tag_217:\n        /* \"#utility.yul\":4647:4682   */\n      swap1\n      pop\n        /* \"#utility.yul\":4584:4688   */\n      swap2\n      swap1\n      pop\n      jump\t// out\n        /* \"#utility.yul\":4694:4836   */\n    tag_132:\n        /* \"#utility.yul\":4797:4829   */\n      tag_219\n        /* \"#utility.yul\":4823:4828   */\n      dup2\n        /* \"#utility.yul\":4797:4829   */\n      tag_131\n      jump\t// in\n    tag_219:\n        /* \"#utility.yul\":4792:4795   */\n      dup3\n        /* \"#utility.yul\":4785:4830   */\n      mstore\n        /* \"#utility.yul\":4694:4836   */\n      pop\n      pop\n      jump\t// out\n        /* \"#utility.yul\":4842:5617   */\n    tag_46:\n        /* \"#utility.yul\":5077:5081   */\n      0x00\n        /* \"#utility.yul\":5115:5118   */\n      0xa0\n        /* \"#utility.yul\":5104:5113   */\n      dup3\n        /* \"#utility.yul\":5100:5119   */\n      add\n        /* \"#utility.yul\":5092:5119   */\n      swap1\n      pop\n        /* \"#utility.yul\":5165:5174   */\n      dup2\n        /* \"#utility.yul\":5159:5163   */\n      dup2\n        /* \"#utility.yul\":5155:5175   */\n      sub\n        /* \"#utility.yul\":5151:5152   */\n      0x00\n        /* \"#utility.yul\":5140:5149   */\n      dup4\n        /* \"#utility.yul\":5136:5153   */\n      add\n        /* \"#utility.yul\":5129:5176   */\n      mstore\n        /* \"#utility.yul\":5193:5271   */\n      tag_221\n        /* \"#utility.yul\":5266:5270   */\n      dup2\n        /* \"#utility.yul\":5257:5263   */\n      dup9\n        /* \"#utility.yul\":5193:5271   */\n      tag_130\n      jump\t// in\n    tag_221:\n        /* \"#utility.yul\":5185:5271   */\n      swap1\n      pop\n        /* \"#utility.yul\":5281:5353   */\n      tag_222\n        /* \"#utility.yul\":5349:5351   */\n      0x20\n        /* \"#utility.yul\":5338:5347   */\n      dup4\n        /* \"#utility.yul\":5334:5352   */\n      add\n        /* \"#utility.yul\":5325:5331   */\n      dup8\n        /* \"#utility.yul\":5281:5353   */\n      tag_124\n      jump\t// in\n    tag_222:\n        /* \"#utility.yul\":5363:5451   */\n      tag_223\n        /* \"#utility.yul\":5447:5449   */\n      0x40\n        /* \"#utility.yul\":5436:5445   */\n      dup4\n        /* \"#utility.yul\":5432:5450   */\n      add\n        /* \"#utility.yul\":5423:5429   */\n      dup7\n        /* \"#utility.yul\":5363:5451   */\n      tag_132\n      jump\t// in\n    tag_223:\n        /* \"#utility.yul\":5461:5527   */\n      tag_224\n        /* \"#utility.yul\":5523:5525   */\n      0x60\n        /* \"#utility.yul\":5512:5521   */\n      dup4\n        /* \"#utility.yul\":5508:5526   */\n      add\n        /* \"#utility.yul\":5499:5505   */\n      dup6\n        /* \"#utility.yul\":5461:5527   */\n      tag_123\n      jump\t// in\n    tag_224:\n        /* \"#utility.yul\":5537:5610   */\n      tag_225\n        /* \"#utility.yul\":5605:5608   */\n      0x80\n        /* \"#utility.yul\":5594:5603   */\n      dup4\n        /* \"#utility.yul\":5590:5609   */\n      add\n        /* \"#utility.yul\":5581:5587   */\n      dup5\n        /* \"#utility.yul\":5537:5610   */\n      tag_124\n      jump\t// in\n    tag_225:\n        /* \"#utility.yul\":4842:5617   */\n      swap7\n      swap6\n      pop\n      pop\n      pop\n      pop\n      pop\n      pop\n      jump\t// out\n        /* \"#utility.yul\":5623:5740   */\n    tag_133:\n        /* \"#utility.yul\":5732:5733   */\n      0x00\n        /* \"#utility.yul\":5729:5730   */\n      dup1\n        /* \"#utility.yul\":5722:5734   */\n      revert\n        /* \"#utility.yul\":5746:5863   */\n    tag_134:\n        /* \"#utility.yul\":5855:5856   */\n      0x00\n        /* \"#utility.yul\":5852:5853   */\n      dup1\n        /* \"#utility.yul\":5845:5857   */\n      revert\n        /* \"#utility.yul\":5869:6049   */\n    tag_135:\n        /* \"#utility.yul\":5917:5994   */\n      0x4e487b7100000000000000000000000000000000000000000000000000000000\n        /* \"#utility.yul\":5914:5915   */\n      0x00\n        /* \"#utility.yul\":5907:5995   */\n      mstore\n        /* \"#utility.yul\":6014:6018   */\n      0x41\n        /* \"#utility.yul\":6011:6012   */\n      0x04\n        /* \"#utility.yul\":6004:6019   */\n      mstore\n        /* \"#utility.yul\":6038:6042   */\n      0x24\n        /* \"#utility.yul\":6035:6036   */\n      0x00\n        /* \"#utility.yul\":6028:6043   */\n      revert\n        /* \"#utility.yul\":6055:6336   */\n    tag_136:\n        /* \"#utility.yul\":6138:6165   */\n      tag_230\n        /* \"#utility.yul\":6160:6164   */\n      dup3\n        /* \"#utility.yul\":6138:6165   */\n      tag_129\n      jump\t// in\n    tag_230:\n        /* \"#utility.yul\":6130:6136   */\n      dup2\n        /* \"#utility.yul\":6126:6166   */\n      add\n        /* \"#utility.yul\":6268:6274   */\n      dup2\n        /* \"#utility.yul\":6256:6266   */\n      dup2\n        /* \"#utility.yul\":6253:6275   */\n      lt\n        /* \"#utility.yul\":6232:6250   */\n      0xffffffffffffffff\n        /* \"#utility.yul\":6220:6230   */\n      dup3\n        /* \"#utility.yul\":6217:6251   */\n      gt\n        /* \"#utility.yul\":6214:6276   */\n      or\n        /* \"#utility.yul\":6211:6299   */\n      iszero\n      tag_231\n      jumpi\n        /* \"#utility.yul\":6279:6297   */\n      tag_232\n      tag_135\n      jump\t// in\n    tag_232:\n        /* \"#utility.yul\":6211:6299   */\n    tag_231:\n        /* \"#utility.yul\":6319:6329   */\n      dup1\n        /* \"#utility.yul\":6315:6317   */\n      0x40\n        /* \"#utility.yul\":6308:6330   */\n      mstore\n        /* \"#utility.yul\":6098:6336   */\n      pop\n        /* \"#utility.yul\":6055:6336   */\n      pop\n      pop\n      jump\t// out\n        /* \"#utility.yul\":6342:6471   */\n    tag_137:\n        /* \"#utility.yul\":6376:6382   */\n      0x00\n        /* \"#utility.yul\":6403:6423   */\n      tag_234\n      tag_112\n      jump\t// in\n    tag_234:\n        /* \"#utility.yul\":6393:6423   */\n      swap1\n      pop\n        /* \"#utility.yul\":6432:6465   */\n      tag_235\n        /* \"#utility.yul\":6460:6464   */\n      dup3\n        /* \"#utility.yul\":6452:6458   */\n      dup3\n        /* \"#utility.yul\":6432:6465   */\n      tag_136\n      jump\t// in\n    tag_235:\n        /* \"#utility.yul\":6342:6471   */\n      swap2\n      swap1\n      pop\n      jump\t// out\n        /* \"#utility.yul\":6477:6785   */\n    tag_138:\n        /* \"#utility.yul\":6539:6543   */\n      0x00\n        /* \"#utility.yul\":6629:6647   */\n      0xffffffffffffffff\n        /* \"#utility.yul\":6621:6627   */\n      dup3\n        /* \"#utility.yul\":6618:6648   */\n      gt\n        /* \"#utility.yul\":6615:6671   */\n      iszero\n      tag_237\n      jumpi\n        /* \"#utility.yul\":6651:6669   */\n      tag_238\n      tag_135\n      jump\t// in\n    tag_238:\n        /* \"#utility.yul\":6615:6671   */\n    tag_237:\n        /* \"#utility.yul\":6689:6718   */\n      tag_239\n        /* \"#utility.yul\":6711:6717   */\n      dup3\n        /* \"#utility.yul\":6689:6718   */\n      tag_129\n      jump\t// in\n    tag_239:\n        /* \"#utility.yul\":6681:6718   */\n      swap1\n      pop\n        /* \"#utility.yul\":6773:6777   */\n      0x20\n        /* \"#utility.yul\":6767:6771   */\n      dup2\n        /* \"#utility.yul\":6763:6778   */\n      add\n        /* \"#utility.yul\":6755:6778   */\n      swap1\n      pop\n        /* \"#utility.yul\":6477:6785   */\n      swap2\n      swap1\n      pop\n      jump\t// out\n        /* \"#utility.yul\":6791:6939   */\n    tag_139:\n        /* \"#utility.yul\":6889:6895   */\n      dup3\n        /* \"#utility.yul\":6884:6887   */\n      dup2\n        /* \"#utility.yul\":6879:6882   */\n      dup4\n        /* \"#utility.yul\":6866:6896   */\n      calldatacopy\n        /* \"#utility.yul\":6930:6931   */\n      0x00\n        /* \"#utility.yul\":6921:6927   */\n      dup4\n        /* \"#utility.yul\":6916:6919   */\n      dup4\n        /* \"#utility.yul\":6912:6928   */\n      add\n        /* \"#utility.yul\":6905:6932   */\n      mstore\n        /* \"#utility.yul\":6791:6939   */\n      pop\n      pop\n      pop\n      jump\t// out\n        /* \"#utility.yul\":6945:7370   */\n    tag_140:\n        /* \"#utility.yul\":7023:7028   */\n      0x00\n        /* \"#utility.yul\":7048:7114   */\n      tag_242\n        /* \"#utility.yul\":7064:7113   */\n      tag_243\n        /* \"#utility.yul\":7106:7112   */\n      dup5\n        /* \"#utility.yul\":7064:7113   */\n      tag_138\n      jump\t// in\n    tag_243:\n        /* \"#utility.yul\":7048:7114   */\n      tag_137\n      jump\t// in\n    tag_242:\n        /* \"#utility.yul\":7039:7114   */\n      swap1\n      pop\n        /* \"#utility.yul\":7137:7143   */\n      dup3\n        /* \"#utility.yul\":7130:7135   */\n      dup2\n        /* \"#utility.yul\":7123:7144   */\n      mstore\n        /* \"#utility.yul\":7175:7179   */\n      0x20\n        /* \"#utility.yul\":7168:7173   */\n      dup2\n        /* \"#utility.yul\":7164:7180   */\n      add\n        /* \"#utility.yul\":7213:7216   */\n      dup5\n        /* \"#utility.yul\":7204:7210   */\n      dup5\n        /* \"#utility.yul\":7199:7202   */\n      dup5\n        /* \"#utility.yul\":7195:7211   */\n      add\n        /* \"#utility.yul\":7192:7217   */\n      gt\n        /* \"#utility.yul\":7189:7301   */\n      iszero\n      tag_244\n      jumpi\n        /* \"#utility.yul\":7220:7299   */\n      tag_245\n      tag_134\n      jump\t// in\n    tag_245:\n        /* \"#utility.yul\":7189:7301   */\n    tag_244:\n        /* \"#utility.yul\":7310:7364   */\n      tag_246\n        /* \"#utility.yul\":7357:7363   */\n      dup5\n        /* \"#utility.yul\":7352:7355   */\n      dup3\n        /* \"#utility.yul\":7347:7350   */\n      dup6\n        /* \"#utility.yul\":7310:7364   */\n      tag_139\n      jump\t// in\n    tag_246:\n        /* \"#utility.yul\":7029:7370   */\n      pop\n        /* \"#utility.yul\":6945:7370   */\n      swap4\n      swap3\n      pop\n      pop\n      pop\n      jump\t// out\n        /* \"#utility.yul\":7390:7730   */\n    tag_141:\n        /* \"#utility.yul\":7446:7451   */\n      0x00\n        /* \"#utility.yul\":7495:7498   */\n      dup3\n        /* \"#utility.yul\":7488:7492   */\n      0x1f\n        /* \"#utility.yul\":7480:7486   */\n      dup4\n        /* \"#utility.yul\":7476:7493   */\n      add\n        /* \"#utility.yul\":7472:7499   */\n      slt\n        /* \"#utility.yul\":7462:7584   */\n      tag_248\n      jumpi\n        /* \"#utility.yul\":7503:7582   */\n      tag_249\n      tag_133\n      jump\t// in\n    tag_249:\n        /* \"#utility.yul\":7462:7584   */\n    tag_248:\n        /* \"#utility.yul\":7620:7626   */\n      dup2\n        /* \"#utility.yul\":7607:7627   */\n      calldataload\n        /* \"#utility.yul\":7645:7724   */\n      tag_250\n        /* \"#utility.yul\":7720:7723   */\n      dup5\n        /* \"#utility.yul\":7712:7718   */\n      dup3\n        /* \"#utility.yul\":7705:7709   */\n      0x20\n        /* \"#utility.yul\":7697:7703   */\n      dup7\n        /* \"#utility.yul\":7693:7710   */\n      add\n        /* \"#utility.yul\":7645:7724   */\n      tag_140\n      jump\t// in\n    tag_250:\n        /* \"#utility.yul\":7636:7724   */\n      swap2\n      pop\n        /* \"#utility.yul\":7452:7730   */\n      pop\n        /* \"#utility.yul\":7390:7730   */\n      swap3\n      swap2\n      pop\n      pop\n      jump\t// out\n        /* \"#utility.yul\":7736:7874   */\n    tag_142:\n        /* \"#utility.yul\":7817:7849   */\n      tag_252\n        /* \"#utility.yul\":7843:7848   */\n      dup2\n        /* \"#utility.yul\":7817:7849   */\n      tag_131\n      jump\t// in\n    tag_252:\n        /* \"#utility.yul\":7810:7815   */\n      dup2\n        /* \"#utility.yul\":7807:7850   */\n      eq\n        /* \"#utility.yul\":7797:7868   */\n      tag_253\n      jumpi\n        /* \"#utility.yul\":7864:7865   */\n      0x00\n        /* \"#utility.yul\":7861:7862   */\n      dup1\n        /* \"#utility.yul\":7854:7866   */\n      revert\n        /* \"#utility.yul\":7797:7868   */\n    tag_253:\n        /* \"#utility.yul\":7736:7874   */\n      pop\n      jump\t// out\n        /* \"#utility.yul\":7880:8035   */\n    tag_143:\n        /* \"#utility.yul\":7934:7939   */\n      0x00\n        /* \"#utility.yul\":7972:7978   */\n      dup2\n        /* \"#utility.yul\":7959:7979   */\n      calldataload\n        /* \"#utility.yul\":7950:7979   */\n      swap1\n      pop\n        /* \"#utility.yul\":7988:8029   */\n      tag_255\n        /* \"#utility.yul\":8023:8028   */\n      dup2\n        /* \"#utility.yul\":7988:8029   */\n      tag_142\n      jump\t// in\n    tag_255:\n        /* \"#utility.yul\":7880:8035   */\n      swap3\n      swap2\n      pop\n      pop\n      jump\t// out\n        /* \"#utility.yul\":8041:8856   */\n    tag_54:\n        /* \"#utility.yul\":8136:8142   */\n      0x00\n        /* \"#utility.yul\":8144:8150   */\n      dup1\n        /* \"#utility.yul\":8152:8158   */\n      0x00\n        /* \"#utility.yul\":8201:8203   */\n      0x60\n        /* \"#utility.yul\":8189:8198   */\n      dup5\n        /* \"#utility.yul\":8180:8187   */\n      dup7\n        /* \"#utility.yul\":8176:8199   */\n      sub\n        /* \"#utility.yul\":8172:8204   */\n      slt\n        /* \"#utility.yul\":8169:8288   */\n      iszero\n      tag_257\n      jumpi\n        /* \"#utility.yul\":8207:8286   */\n      tag_258\n      tag_113\n      jump\t// in\n    tag_258:\n        /* \"#utility.yul\":8169:8288   */\n    tag_257:\n        /* \"#utility.yul\":8355:8356   */\n      0x00\n        /* \"#utility.yul\":8344:8353   */\n      dup5\n        /* \"#utility.yul\":8340:8357   */\n      add\n        /* \"#utility.yul\":8327:8358   */\n      calldataload\n        /* \"#utility.yul\":8385:8403   */\n      0xffffffffffffffff\n        /* \"#utility.yul\":8377:8383   */\n      dup2\n        /* \"#utility.yul\":8374:8404   */\n      gt\n        /* \"#utility.yul\":8371:8488   */\n      iszero\n      tag_259\n      jumpi\n        /* \"#utility.yul\":8407:8486   */\n      tag_260\n      tag_114\n      jump\t// in\n    tag_260:\n        /* \"#utility.yul\":8371:8488   */\n    tag_259:\n        /* \"#utility.yul\":8512:8575   */\n      tag_261\n        /* \"#utility.yul\":8567:8574   */\n      dup7\n        /* \"#utility.yul\":8558:8564   */\n      dup3\n        /* \"#utility.yul\":8547:8556   */\n      dup8\n        /* \"#utility.yul\":8543:8565   */\n      add\n        /* \"#utility.yul\":8512:8575   */\n      tag_141\n      jump\t// in\n    tag_261:\n        /* \"#utility.yul\":8502:8575   */\n      swap4\n      pop\n        /* \"#utility.yul\":8298:8585   */\n      pop\n        /* \"#utility.yul\":8624:8626   */\n      0x20\n        /* \"#utility.yul\":8650:8703   */\n      tag_262\n        /* \"#utility.yul\":8695:8702   */\n      dup7\n        /* \"#utility.yul\":8686:8692   */\n      dup3\n        /* \"#utility.yul\":8675:8684   */\n      dup8\n        /* \"#utility.yul\":8671:8693   */\n      add\n        /* \"#utility.yul\":8650:8703   */\n      tag_117\n      jump\t// in\n    tag_262:\n        /* \"#utility.yul\":8640:8703   */\n      swap3\n      pop\n        /* \"#utility.yul\":8595:8713   */\n      pop\n        /* \"#utility.yul\":8752:8754   */\n      0x40\n        /* \"#utility.yul\":8778:8839   */\n      tag_263\n        /* \"#utility.yul\":8831:8838   */\n      dup7\n        /* \"#utility.yul\":8822:8828   */\n      dup3\n        /* \"#utility.yul\":8811:8820   */\n      dup8\n        /* \"#utility.yul\":8807:8829   */\n      add\n        /* \"#utility.yul\":8778:8839   */\n      tag_143\n      jump\t// in\n    tag_263:\n        /* \"#utility.yul\":8768:8839   */\n      swap2\n      pop\n        /* \"#utility.yul\":8723:8849   */\n      pop\n        /* \"#utility.yul\":8041:8856   */\n      swap3\n      pop\n      swap3\n      pop\n      swap3\n      jump\t// out\n        /* \"#utility.yul\":8862:9042   */\n    tag_71:\n        /* \"#utility.yul\":8910:8987   */\n      0x4e487b7100000000000000000000000000000000000000000000000000000000\n        /* \"#utility.yul\":8907:8908   */\n      0x00\n        /* \"#utility.yul\":8900:8988   */\n      mstore\n        /* \"#utility.yul\":9007:9011   */\n      0x32\n        /* \"#utility.yul\":9004:9005   */\n      0x04\n        /* \"#utility.yul\":8997:9012   */\n      mstore\n        /* \"#utility.yul\":9031:9035   */\n      0x24\n        /* \"#utility.yul\":9028:9029   */\n      0x00\n        /* \"#utility.yul\":9021:9036   */\n      revert\n        /* \"#utility.yul\":9048:9228   */\n    tag_144:\n        /* \"#utility.yul\":9096:9173   */\n      0x4e487b7100000000000000000000000000000000000000000000000000000000\n        /* \"#utility.yul\":9093:9094   */\n      0x00\n        /* \"#utility.yul\":9086:9174   */\n      mstore\n        /* \"#utility.yul\":9193:9197   */\n      0x12\n        /* \"#utility.yul\":9190:9191   */\n      0x04\n        /* \"#utility.yul\":9183:9198   */\n      mstore\n        /* \"#utility.yul\":9217:9221   */\n      0x24\n        /* \"#utility.yul\":9214:9215   */\n      0x00\n        /* \"#utility.yul\":9207:9222   */\n      revert\n        /* \"#utility.yul\":9234:9414   */\n    tag_145:\n        /* \"#utility.yul\":9282:9359   */\n      0x4e487b7100000000000000000000000000000000000000000000000000000000\n        /* \"#utility.yul\":9279:9280   */\n      0x00\n        /* \"#utility.yul\":9272:9360   */\n      mstore\n        /* \"#utility.yul\":9379:9383   */\n      0x11\n        /* \"#utility.yul\":9376:9377   */\n      0x04\n        /* \"#utility.yul\":9369:9384   */\n      mstore\n        /* \"#utility.yul\":9403:9407   */\n      0x24\n        /* \"#utility.yul\":9400:9401   */\n      0x00\n        /* \"#utility.yul\":9393:9408   */\n      revert\n        /* \"#utility.yul\":9420:9605   */\n    tag_74:\n        /* \"#utility.yul\":9460:9461   */\n      0x00\n        /* \"#utility.yul\":9477:9497   */\n      tag_268\n        /* \"#utility.yul\":9495:9496   */\n      dup3\n        /* \"#utility.yul\":9477:9497   */\n      tag_115\n      jump\t// in\n    tag_268:\n        /* \"#utility.yul\":9472:9497   */\n      swap2\n      pop\n        /* \"#utility.yul\":9511:9531   */\n      tag_269\n        /* \"#utility.yul\":9529:9530   */\n      dup4\n        /* \"#utility.yul\":9511:9531   */\n      tag_115\n      jump\t// in\n    tag_269:\n        /* \"#utility.yul\":9506:9531   */\n      swap3\n      pop\n        /* \"#utility.yul\":9550:9551   */\n      dup3\n        /* \"#utility.yul\":9540:9575   */\n      tag_270\n      jumpi\n        /* \"#utility.yul\":9555:9573   */\n      tag_271\n      tag_144\n      jump\t// in\n    tag_271:\n        /* \"#utility.yul\":9540:9575   */\n    tag_270:\n        /* \"#utility.yul\":9597:9598   */\n      dup3\n        /* \"#utility.yul\":9594:9595   */\n      dup3\n        /* \"#utility.yul\":9590:9599   */\n      div\n        /* \"#utility.yul\":9585:9599   */\n      swap1\n      pop\n        /* \"#utility.yul\":9420:9605   */\n      swap3\n      swap2\n      pop\n      pop\n      jump\t// out\n        /* \"#utility.yul\":9611:9791   */\n    tag_146:\n        /* \"#utility.yul\":9659:9736   */\n      0x4e487b7100000000000000000000000000000000000000000000000000000000\n        /* \"#utility.yul\":9656:9657   */\n      0x00\n        /* \"#utility.yul\":9649:9737   */\n      mstore\n        /* \"#utility.yul\":9756:9760   */\n      0x22\n        /* \"#utility.yul\":9753:9754   */\n      0x04\n        /* \"#utility.yul\":9746:9761   */\n      mstore\n        /* \"#utility.yul\":9780:9784   */\n      0x24\n        /* \"#utility.yul\":9777:9778   */\n      0x00\n        /* \"#utility.yul\":9770:9785   */\n      revert\n        /* \"#utility.yul\":9797:10117   */\n    tag_87:\n        /* \"#utility.yul\":9841:9847   */\n      0x00\n        /* \"#utility.yul\":9878:9879   */\n      0x02\n        /* \"#utility.yul\":9872:9876   */\n      dup3\n        /* \"#utility.yul\":9868:9880   */\n      div\n        /* \"#utility.yul\":9858:9880   */\n      swap1\n      pop\n        /* \"#utility.yul\":9925:9926   */\n      0x01\n        /* \"#utility.yul\":9919:9923   */\n      dup3\n        /* \"#utility.yul\":9915:9927   */\n      and\n        /* \"#utility.yul\":9946:9964   */\n      dup1\n        /* \"#utility.yul\":9936:10017   */\n      tag_274\n      jumpi\n        /* \"#utility.yul\":10002:10006   */\n      0x7f\n        /* \"#utility.yul\":9994:10000   */\n      dup3\n        /* \"#utility.yul\":9990:10007   */\n      and\n        /* \"#utility.yul\":9980:10007   */\n      swap2\n      pop\n        /* \"#utility.yul\":9936:10017   */\n    tag_274:\n        /* \"#utility.yul\":10064:10066   */\n      0x20\n        /* \"#utility.yul\":10056:10062   */\n      dup3\n        /* \"#utility.yul\":10053:10067   */\n      lt\n        /* \"#utility.yul\":10033:10051   */\n      dup2\n        /* \"#utility.yul\":10030:10068   */\n      sub\n        /* \"#utility.yul\":10027:10111   */\n      tag_275\n      jumpi\n        /* \"#utility.yul\":10083:10101   */\n      tag_276\n      tag_146\n      jump\t// in\n    tag_276:\n        /* \"#utility.yul\":10027:10111   */\n    tag_275:\n        /* \"#utility.yul\":9848:10117   */\n      pop\n        /* \"#utility.yul\":9797:10117   */\n      swap2\n      swap1\n      pop\n      jump\t// out\n        /* \"#utility.yul\":10123:10264   */\n    tag_147:\n        /* \"#utility.yul\":10172:10176   */\n      0x00\n        /* \"#utility.yul\":10195:10198   */\n      dup2\n        /* \"#utility.yul\":10187:10198   */\n      swap1\n      pop\n        /* \"#utility.yul\":10218:10221   */\n      dup2\n        /* \"#utility.yul\":10215:10216   */\n      0x00\n        /* \"#utility.yul\":10208:10222   */\n      mstore\n        /* \"#utility.yul\":10252:10256   */\n      0x20\n        /* \"#utility.yul\":10249:10250   */\n      0x00\n        /* \"#utility.yul\":10239:10257   */\n      keccak256\n        /* \"#utility.yul\":10231:10257   */\n      swap1\n      pop\n        /* \"#utility.yul\":10123:10264   */\n      swap2\n      swap1\n      pop\n      jump\t// out\n        /* \"#utility.yul\":10270:10363   */\n    tag_148:\n        /* \"#utility.yul\":10307:10313   */\n      0x00\n        /* \"#utility.yul\":10354:10356   */\n      0x20\n        /* \"#utility.yul\":10349:10351   */\n      0x1f\n        /* \"#utility.yul\":10342:10347   */\n      dup4\n        /* \"#utility.yul\":10338:10352   */\n      add\n        /* \"#utility.yul\":10334:10357   */\n      div\n        /* \"#utility.yul\":10324:10357   */\n      swap1\n      pop\n        /* \"#utility.yul\":10270:10363   */\n      swap2\n      swap1\n      pop\n      jump\t// out\n        /* \"#utility.yul\":10369:10476   */\n    tag_149:\n        /* \"#utility.yul\":10413:10421   */\n      0x00\n        /* \"#utility.yul\":10463:10468   */\n      dup3\n        /* \"#utility.yul\":10457:10461   */\n      dup3\n        /* \"#utility.yul\":10453:10469   */\n      shl\n        /* \"#utility.yul\":10432:10469   */\n      swap1\n      pop\n        /* \"#utility.yul\":10369:10476   */\n      swap3\n      swap2\n      pop\n      pop\n      jump\t// out\n        /* \"#utility.yul\":10482:10875   */\n    tag_150:\n        /* \"#utility.yul\":10551:10557   */\n      0x00\n        /* \"#utility.yul\":10601:10602   */\n      0x08\n        /* \"#utility.yul\":10589:10599   */\n      dup4\n        /* \"#utility.yul\":10585:10603   */\n      mul\n        /* \"#utility.yul\":10624:10721   */\n      tag_281\n        /* \"#utility.yul\":10654:10720   */\n      0xffffffffffffffffffffffffffffffffffffffffffffffffffffffffffffffff\n        /* \"#utility.yul\":10643:10652   */\n      dup3\n        /* \"#utility.yul\":10624:10721   */\n      tag_149\n      jump\t// in\n    tag_281:\n        /* \"#utility.yul\":10742:10781   */\n      tag_282\n        /* \"#utility.yul\":10772:10780   */\n      dup7\n        /* \"#utility.yul\":10761:10770   */\n      dup4\n        /* \"#utility.yul\":10742:10781   */\n      tag_149\n      jump\t// in\n    tag_282:\n        /* \"#utility.yul\":10730:10781   */\n      swap6\n      pop\n        /* \"#utility.yul\":10814:10818   */\n      dup1\n        /* \"#utility.yul\":10810:10819   */\n      not\n        /* \"#utility.yul\":10803:10808   */\n      dup5\n        /* \"#utility.yul\":10799:10820   */\n      and\n        /* \"#utility.yul\":10790:10820   */\n      swap4\n      pop\n        /* \"#utility.yul\":10863:10867   */\n      dup1\n        /* \"#utility.yul\":10853:10861   */\n      dup7\n        /* \"#utility.yul\":10849:10868   */\n      and\n        /* \"#utility.yul\":10842:10847   */\n      dup5\n        /* \"#utility.yul\":10839:10869   */\n      or\n        /* \"#utility.yul\":10829:10869   */\n      swap3\n      pop\n        /* \"#utility.yul\":10558:10875   */\n      pop\n      pop\n        /* \"#utility.yul\":10482:10875   */\n      swap4\n      swap3\n      pop\n      pop\n      pop\n      jump\t// out\n        /* \"#utility.yul\":10881:10941   */\n    tag_151:\n        /* \"#utility.yul\":10909:10912   */\n      0x00\n        /* \"#utility.yul\":10930:10935   */\n      dup2\n        /* \"#utility.yul\":10923:10935   */\n      swap1\n      pop\n        /* \"#utility.yul\":10881:10941   */\n      swap2\n      swap1\n      pop\n      jump\t// out\n        /* \"#utility.yul\":10947:11089   */\n    tag_152:\n        /* \"#utility.yul\":10997:11006   */\n      0x00\n        /* \"#utility.yul\":11030:11083   */\n      tag_285\n        /* \"#utility.yul\":11048:11082   */\n      tag_286\n        /* \"#utility.yul\":11057:11081   */\n      tag_287\n        /* \"#utility.yul\":11075:11080   */\n      dup5\n        /* \"#utility.yul\":11057:11081   */\n      tag_115\n      jump\t// in\n    tag_287:\n        /* \"#utility.yul\":11048:11082   */\n      tag_151\n      jump\t// in\n    tag_286:\n        /* \"#utility.yul\":11030:11083   */\n      tag_115\n      jump\t// in\n    tag_285:\n        /* \"#utility.yul\":11017:11083   */\n      swap1\n      pop\n        /* \"#utility.yul\":10947:11089   */\n      swap2\n      swap1\n      pop\n      jump\t// out\n        /* \"#utility.yul\":11095:11170   */\n    tag_153:\n        /* \"#utility.yul\":11138:11141   */\n      0x00\n        /* \"#utility.yul\":11159:11164   */\n      dup2\n        /* \"#utility.yul\":11152:11164   */\n      swap1\n      pop\n        /* \"#utility.yul\":11095:11170   */\n      swap2\n      swap1\n      pop\n      jump\t// out\n        /* \"#utility.yul\":11176:11445   */\n    tag_154:\n        /* \"#utility.yul\":11286:11325   */\n      tag_290\n        /* \"#utility.yul\":11317:11324   */\n      dup4\n        /* \"#utility.yul\":11286:11325   */\n      tag_152\n      jump\t// in\n    tag_290:\n        /* \"#utility.yul\":11347:11438   */\n      tag_291\n        /* \"#utility.yul\":11396:11437   */\n      tag_292\n        /* \"#utility.yul\":11420:11436   */\n      dup3\n        /* \"#utility.yul\":11396:11437   */\n      tag_153\n      jump\t// in\n    tag_292:\n        /* \"#utility.yul\":11388:11394   */\n      dup5\n        /* \"#utility.yul\":11381:11385   */\n      dup5\n        /* \"#utility.yul\":11375:11386   */\n      sload\n        /* \"#utility.yul\":11347:11438   */\n      tag_150\n      jump\t// in\n    tag_291:\n        /* \"#utility.yul\":11341:11345   */\n      dup3\n        /* \"#utility.yul\":11334:11439   */\n      sstore\n        /* \"#utility.yul\":11252:11445   */\n      pop\n        /* \"#utility.yul\":11176:11445   */\n      pop\n      pop\n      pop\n      jump\t// out\n        /* \"#utility.yul\":11451:11524   */\n    tag_155:\n        /* \"#utility.yul\":11496:11499   */\n      0x00\n        /* \"#utility.yul\":11451:11524   */\n      swap1\n      jump\t// out\n        /* \"#utility.yul\":11530:11719   */\n    tag_156:\n        /* \"#utility.yul\":11607:11639   */\n      tag_295\n      tag_155\n      jump\t// in\n    tag_295:\n        /* \"#utility.yul\":11648:11713   */\n      tag_296\n        /* \"#utility.yul\":11706:11712   */\n      dup2\n        /* \"#utility.yul\":11698:11704   */\n      dup5\n        /* \"#utility.yul\":11692:11696   */\n      dup5\n        /* \"#utility.yul\":11648:11713   */\n      tag_154\n      jump\t// in\n    tag_296:\n        /* \"#utility.yul\":11583:11719   */\n      pop\n        /* \"#utility.yul\":11530:11719   */\n      pop\n      pop\n      jump\t// out\n        /* \"#utility.yul\":11725:11911   */\n    tag_157:\n        /* \"#utility.yul\":11785:11905   */\n    tag_298:\n        /* \"#utility.yul\":11802:11805   */\n      dup2\n        /* \"#utility.yul\":11795:11800   */\n      dup2\n        /* \"#utility.yul\":11792:11806   */\n      lt\n        /* \"#utility.yul\":11785:11905   */\n      iszero\n      tag_300\n      jumpi\n        /* \"#utility.yul\":11856:11895   */\n      tag_301\n        /* \"#utility.yul\":11893:11894   */\n      0x00\n        /* \"#utility.yul\":11886:11891   */\n      dup3\n        /* \"#utility.yul\":11856:11895   */\n      tag_156\n      jump\t// in\n    tag_301:\n        /* \"#utility.yul\":11829:11830   */\n      0x01\n        /* \"#utility.yul\":11822:11827   */\n      dup2\n        /* \"#utility.yul\":11818:11831   */\n      add\n        /* \"#utility.yul\":11809:11831   */\n      swap1\n      pop\n        /* \"#utility.yul\":11785:11905   */\n      jump(tag_298)\n    tag_300:\n        /* \"#utility.yul\":11725:11911   */\n      pop\n      pop\n      jump\t// out\n        /* \"#utility.yul\":11917:12460   */\n    tag_158:\n        /* \"#utility.yul\":12018:12020   */\n      0x1f\n        /* \"#utility.yul\":12013:12016   */\n      dup3\n        /* \"#utility.yul\":12010:12021   */\n      gt\n        /* \"#utility.yul\":12007:12453   */\n      iszero\n      tag_303\n      jumpi\n        /* \"#utility.yul\":12052:12090   */\n      tag_304\n        /* \"#utility.yul\":12084:12089   */\n      dup2\n        /* \"#utility.yul\":12052:12090   */\n      tag_147\n      jump\t// in\n    tag_304:\n        /* \"#utility.yul\":12136:12165   */\n      tag_305\n        /* \"#utility.yul\":12154:12164   */\n      dup5\n        /* \"#utility.yul\":12136:12165   */\n      tag_148\n      jump\t// in\n    tag_305:\n        /* \"#utility.yul\":12126:12134   */\n      dup2\n        /* \"#utility.yul\":12122:12166   */\n      add\n        /* \"#utility.yul\":12319:12321   */\n      0x20\n        /* \"#utility.yul\":12307:12317   */\n      dup6\n        /* \"#utility.yul\":12304:12322   */\n      lt\n        /* \"#utility.yul\":12301:12350   */\n      iszero\n      tag_306\n      jumpi\n        /* \"#utility.yul\":12340:12348   */\n      dup2\n        /* \"#utility.yul\":12325:12348   */\n      swap1\n      pop\n        /* \"#utility.yul\":12301:12350   */\n    tag_306:\n        /* \"#utility.yul\":12363:12443   */\n      tag_307\n        /* \"#utility.yul\":12419:12441   */\n      tag_308\n        /* \"#utility.yul\":12437:12440   */\n      dup6\n        /* \"#utility.yul\":12419:12441   */\n      tag_148\n      jump\t// in\n    tag_308:\n        /* \"#utility.yul\":12409:12417   */\n      dup4\n        /* \"#utility.yul\":12405:12442   */\n      add\n        /* \"#utility.yul\":12392:12403   */\n      dup3\n        /* \"#utility.yul\":12363:12443   */\n      tag_157\n      jump\t// in\n    tag_307:\n        /* \"#utility.yul\":12022:12453   */\n      pop\n      pop\n        /* \"#utility.yul\":12007:12453   */\n    tag_303:\n        /* \"#utility.yul\":11917:12460   */\n      pop\n      pop\n      pop\n      jump\t// out\n        /* \"#utility.yul\":12466:12583   */\n    tag_159:\n        /* \"#utility.yul\":12520:12528   */\n      0x00\n        /* \"#utility.yul\":12570:12575   */\n      dup3\n        /* \"#utility.yul\":12564:12568   */\n      dup3\n        /* \"#utility.yul\":12560:12576   */\n      shr\n        /* \"#utility.yul\":12539:12576   */\n      swap1\n      pop\n        /* \"#utility.yul\":12466:12583   */\n      swap3\n      swap2\n      pop\n      pop\n      jump\t// out\n        /* \"#utility.yul\":12589:12758   */\n    tag_160:\n        /* \"#utility.yul\":12633:12639   */\n      0x00\n        /* \"#utility.yul\":12666:12717   */\n      tag_311\n        /* \"#utility.yul\":12714:12715   */\n      0x00\n        /* \"#utility.yul\":12710:12716   */\n      not\n        /* \"#utility.yul\":12702:12707   */\n      dup5\n        /* \"#utility.yul\":12699:12700   */\n      0x08\n        /* \"#utility.yul\":12695:12708   */\n      mul\n        /* \"#utility.yul\":12666:12717   */\n      tag_159\n      jump\t// in\n    tag_311:\n        /* \"#utility.yul\":12662:12718   */\n      not\n        /* \"#utility.yul\":12747:12751   */\n      dup1\n        /* \"#utility.yul\":12741:12745   */\n      dup4\n        /* \"#utility.yul\":12737:12752   */\n      and\n        /* \"#utility.yul\":12727:12752   */\n      swap2\n      pop\n        /* \"#utility.yul\":12640:12758   */\n      pop\n        /* \"#utility.yul\":12589:12758   */\n      swap3\n      swap2\n      pop\n      pop\n      jump\t// out\n        /* \"#utility.yul\":12763:13058   */\n    tag_161:\n        /* \"#utility.yul\":12839:12843   */\n      0x00\n        /* \"#utility.yul\":12985:13014   */\n      tag_313\n        /* \"#utility.yul\":13010:13013   */\n      dup4\n        /* \"#utility.yul\":13004:13008   */\n      dup4\n        /* \"#utility.yul\":12985:13014   */\n      tag_160\n      jump\t// in\n    tag_313:\n        /* \"#utility.yul\":12977:13014   */\n      swap2\n      pop\n        /* \"#utility.yul\":13047:13050   */\n      dup3\n        /* \"#utility.yul\":13044:13045   */\n      0x02\n        /* \"#utility.yul\":13040:13051   */\n      mul\n        /* \"#utility.yul\":13034:13038   */\n      dup3\n        /* \"#utility.yul\":13031:13052   */\n      or\n        /* \"#utility.yul\":13023:13052   */\n      swap1\n      pop\n        /* \"#utility.yul\":12763:13058   */\n      swap3\n      swap2\n      pop\n      pop\n      jump\t// out\n        /* \"#utility.yul\":13063:14458   */\n    tag_97:\n        /* \"#utility.yul\":13180:13217   */\n      tag_315\n        /* \"#utility.yul\":13213:13216   */\n      dup3\n        /* \"#utility.yul\":13180:13217   */\n      tag_126\n      jump\t// in\n    tag_315:\n        /* \"#utility.yul\":13282:13300   */\n      0xffffffffffffffff\n        /* \"#utility.yul\":13274:13280   */\n      dup2\n        /* \"#utility.yul\":13271:13301   */\n      gt\n        /* \"#utility.yul\":13268:13324   */\n      iszero\n      tag_316\n      jumpi\n        /* \"#utility.yul\":13304:13322   */\n      tag_317\n      tag_135\n      jump\t// in\n    tag_317:\n        /* \"#utility.yul\":13268:13324   */\n    tag_316:\n        /* \"#utility.yul\":13348:13386   */\n      tag_318\n        /* \"#utility.yul\":13380:13384   */\n      dup3\n        /* \"#utility.yul\":13374:13385   */\n      sload\n        /* \"#utility.yul\":13348:13386   */\n      tag_87\n      jump\t// in\n    tag_318:\n        /* \"#utility.yul\":13433:13500   */\n      tag_319\n        /* \"#utility.yul\":13493:13499   */\n      dup3\n        /* \"#utility.yul\":13485:13491   */\n      dup3\n        /* \"#utility.yul\":13479:13483   */\n      dup6\n        /* \"#utility.yul\":13433:13500   */\n      tag_158\n      jump\t// in\n    tag_319:\n        /* \"#utility.yul\":13527:13528   */\n      0x00\n        /* \"#utility.yul\":13551:13555   */\n      0x20\n        /* \"#utility.yul\":13538:13555   */\n      swap1\n      pop\n        /* \"#utility.yul\":13583:13585   */\n      0x1f\n        /* \"#utility.yul\":13575:13581   */\n      dup4\n        /* \"#utility.yul\":13572:13586   */\n      gt\n        /* \"#utility.yul\":13600:13601   */\n      0x01\n        /* \"#utility.yul\":13595:14213   */\n      dup2\n      eq\n      tag_321\n      jumpi\n        /* \"#utility.yul\":14257:14258   */\n      0x00\n        /* \"#utility.yul\":14274:14280   */\n      dup5\n        /* \"#utility.yul\":14271:14348   */\n      iszero\n      tag_322\n      jumpi\n        /* \"#utility.yul\":14323:14332   */\n      dup3\n        /* \"#utility.yul\":14318:14321   */\n      dup8\n        /* \"#utility.yul\":14314:14333   */\n      add\n        /* \"#utility.yul\":14308:14334   */\n      mload\n        /* \"#utility.yul\":14299:14334   */\n      swap1\n      pop\n        /* \"#utility.yul\":14271:14348   */\n    tag_322:\n        /* \"#utility.yul\":14374:14441   */\n      tag_323\n        /* \"#utility.yul\":14434:14440   */\n      dup6\n        /* \"#utility.yul\":14427:14432   */\n      dup3\n        /* \"#utility.yul\":14374:14441   */\n      tag_161\n      jump\t// in\n    tag_323:\n        /* \"#utility.yul\":14368:14372   */\n      dup7\n        /* \"#utility.yul\":14361:14442   */\n      sstore\n        /* \"#utility.yul\":14230:14452   */\n      pop\n        /* \"#utility.yul\":13565:14452   */\n      jump(tag_320)\n        /* \"#utility.yul\":13595:14213   */\n    tag_321:\n        /* \"#utility.yul\":13647:13651   */\n      0x1f\n        /* \"#utility.yul\":13643:13652   */\n      not\n        /* \"#utility.yul\":13635:13641   */\n      dup5\n        /* \"#utility.yul\":13631:13653   */\n      and\n        /* \"#utility.yul\":13681:13718   */\n      tag_324\n        /* \"#utility.yul\":13713:13717   */\n      dup7\n        /* \"#utility.yul\":13681:13718   */\n      tag_147\n      jump\t// in\n    tag_324:\n        /* \"#utility.yul\":13740:13741   */\n      0x00\n        /* \"#utility.yul\":13754:13962   */\n    tag_325:\n        /* \"#utility.yul\":13768:13775   */\n      dup3\n        /* \"#utility.yul\":13765:13766   */\n      dup2\n        /* \"#utility.yul\":13762:13776   */\n      lt\n        /* \"#utility.yul\":13754:13962   */\n      iszero\n      tag_327\n      jumpi\n        /* \"#utility.yul\":13847:13856   */\n      dup5\n        /* \"#utility.yul\":13842:13845   */\n      dup10\n        /* \"#utility.yul\":13838:13857   */\n      add\n        /* \"#utility.yul\":13832:13858   */\n      mload\n        /* \"#utility.yul\":13824:13830   */\n      dup3\n        /* \"#utility.yul\":13817:13859   */\n      sstore\n        /* \"#utility.yul\":13898:13899   */\n      0x01\n        /* \"#utility.yul\":13890:13896   */\n      dup3\n        /* \"#utility.yul\":13886:13900   */\n      add\n        /* \"#utility.yul\":13876:13900   */\n      swap2\n      pop\n        /* \"#utility.yul\":13945:13947   */\n      0x20\n        /* \"#utility.yul\":13934:13943   */\n      dup6\n        /* \"#utility.yul\":13930:13948   */\n      add\n        /* \"#utility.yul\":13917:13948   */\n      swap5\n      pop\n        /* \"#utility.yul\":13791:13795   */\n      0x20\n        /* \"#utility.yul\":13788:13789   */\n      dup2\n        /* \"#utility.yul\":13784:13796   */\n      add\n        /* \"#utility.yul\":13779:13796   */\n      swap1\n      pop\n        /* \"#utility.yul\":13754:13962   */\n      jump(tag_325)\n    tag_327:\n        /* \"#utility.yul\":13990:13996   */\n      dup7\n        /* \"#utility.yul\":13981:13988   */\n      dup4\n        /* \"#utility.yul\":13978:13997   */\n      lt\n        /* \"#utility.yul\":13975:14154   */\n      iszero\n      tag_328\n      jumpi\n        /* \"#utility.yul\":14048:14057   */\n      dup5\n        /* \"#utility.yul\":14043:14046   */\n      dup10\n        /* \"#utility.yul\":14039:14058   */\n      add\n        /* \"#utility.yul\":14033:14059   */\n      mload\n        /* \"#utility.yul\":14091:14139   */\n      tag_329\n        /* \"#utility.yul\":14133:14137   */\n      0x1f\n        /* \"#utility.yul\":14125:14131   */\n      dup10\n        /* \"#utility.yul\":14121:14138   */\n      and\n        /* \"#utility.yul\":14110:14119   */\n      dup3\n        /* \"#utility.yul\":14091:14139   */\n      tag_160\n      jump\t// in\n    tag_329:\n        /* \"#utility.yul\":14083:14089   */\n      dup4\n        /* \"#utility.yul\":14076:14140   */\n      sstore\n        /* \"#utility.yul\":13998:14154   */\n      pop\n        /* \"#utility.yul\":13975:14154   */\n    tag_328:\n        /* \"#utility.yul\":14200:14201   */\n      0x01\n        /* \"#utility.yul\":14196:14197   */\n      0x02\n        /* \"#utility.yul\":14188:14194   */\n      dup9\n        /* \"#utility.yul\":14184:14198   */\n      mul\n        /* \"#utility.yul\":14180:14202   */\n      add\n        /* \"#utility.yul\":14174:14178   */\n      dup9\n        /* \"#utility.yul\":14167:14203   */\n      sstore\n        /* \"#utility.yul\":13602:14213   */\n      pop\n      pop\n      pop\n        /* \"#utility.yul\":13565:14452   */\n    tag_320:\n      pop\n        /* \"#utility.yul\":13155:14458   */\n      pop\n      pop\n      pop\n        /* \"#utility.yul\":13063:14458   */\n      pop\n      pop\n      jump\t// out\n        /* \"#utility.yul\":14464:14697   */\n    tag_101:\n        /* \"#utility.yul\":14503:14506   */\n      0x00\n        /* \"#utility.yul\":14526:14550   */\n      tag_331\n        /* \"#utility.yul\":14544:14549   */\n      dup3\n        /* \"#utility.yul\":14526:14550   */\n      tag_115\n      jump\t// in\n    tag_331:\n        /* \"#utility.yul\":14517:14550   */\n      swap2\n      pop\n        /* \"#utility.yul\":14572:14638   */\n      0xffffffffffffffffffffffffffffffffffffffffffffffffffffffffffffffff\n        /* \"#utility.yul\":14565:14570   */\n      dup3\n        /* \"#utility.yul\":14562:14639   */\n      sub\n        /* \"#utility.yul\":14559:14662   */\n      tag_332\n      jumpi\n        /* \"#utility.yul\":14642:14660   */\n      tag_333\n      tag_145\n      jump\t// in\n    tag_333:\n        /* \"#utility.yul\":14559:14662   */\n    tag_332:\n        /* \"#utility.yul\":14689:14690   */\n      0x01\n        /* \"#utility.yul\":14682:14687   */\n      dup3\n        /* \"#utility.yul\":14678:14691   */\n      add\n        /* \"#utility.yul\":14671:14691   */\n      swap1\n      pop\n        /* \"#utility.yul\":14464:14697   */\n      swap2\n      swap1\n      pop\n      jump\t// out\n\n    auxdata: 0xa2646970667358221220877ff5abeb1b19096a79b10e21744ceba1e38c22b21253fb7bc2cdce8d01517064736f6c634300081a0033\n}\n","bytecode":{"linkReferences":{},"object":"608060405234801561000f575f80fd5b506040516111fc3803806111fc83398181016040528101906100319190610110565b8060015f6101000a81548173ffffffffffffffffffffffffffffffffffffffff021916908373ffffffffffffffffffffffffffffffffffffffff16021790555081600281905550505061014e565b5f80fd5b5f819050919050565b61009581610083565b811461009f575f80fd5b50565b5f815190506100b08161008c565b92915050565b5f73ffffffffffffffffffffffffffffffffffffffff82169050919050565b5f6100df826100b6565b9050919050565b6100ef816100d5565b81146100f9575f80fd5b50565b5f8151905061010a816100e6565b92915050565b5f80604083850312156101265761012561007f565b5b5f610133858286016100a2565b9250506020610144858286016100fc565b9150509250929050565b6110a18061015b5f395ff3fe60806040526004361061009b575f3560e01c806381d12c581161006357806381d12c581461018557806382fde093146101c55780638a9cfd55146101ef578063937e09b114610217578063d7bb99ba14610241578063d7d1bbdb1461024b5761009b565b8063034410061461009f5780630a144391146100c75780633fad1834146101035780634051ddac1461012d578063481c6a751461015b575b5f80fd5b3480156100aa575f80fd5b506100c560048036038101906100c09190610876565b610273565b005b3480156100d2575f80fd5b506100ed60048036038101906100e891906108fb565b6103ce565b6040516100fa9190610940565b60405180910390f35b34801561010e575f80fd5b506101176103eb565b6040516101249190610968565b60405180910390f35b348015610138575f80fd5b506101416103f6565b604051610152959493929190610990565b60405180910390f35b348015610166575f80fd5b5061016f61043a565b60405161017c91906109e1565b60405180910390f35b348015610190575f80fd5b506101ab60048036038101906101a69190610876565b61045f565b6040516101bc959493929190610a8a565b60405180910390f35b3480156101d0575f80fd5b506101d9610551565b6040516101e69190610968565b60405180910390f35b3480156101fa575f80fd5b5061021560048036038101906102109190610c38565b610557565b005b348015610222575f80fd5b5061022b610656565b6040516102389190610968565b60405180910390f35b61024961065c565b005b348015610256575f80fd5b50610271600480360381019061026c9190610876565b6106d7565b005b60015f9054906101000a900473ffffffffffffffffffffffffffffffffffffffff1673ffffffffffffffffffffffffffffffffffffffff163373ffffffffffffffffffffffffffffffffffffffff16146102cb575f80fd5b5f8082815481106102df576102de610ca4565b5b905f5260205f209060050201905060026004546102fc9190610d2b565b5f838154811061030f5761030e610ca4565b5b905f5260205f2090600502016003015411610328575f80fd5b8060020160149054906101000a900460ff16610342575f80fd5b806002015f9054906101000a900473ffffffffffffffffffffffffffffffffffffffff1673ffffffffffffffffffffffffffffffffffffffff166108fc826001015490811502906040515f60405180830381858888f193505050501580156103ac573d5f803e3d5ffd5b5060018160020160146101000a81548160ff0219169083151502179055505050565b6003602052805f5260405f205f915054906101000a900460ff1681565b5f8080549050905090565b5f805f805f600254475f8054905060045460015f9054906101000a900473ffffffffffffffffffffffffffffffffffffffff16945094509450945094509091929394565b60015f9054906101000a900473ffffffffffffffffffffffffffffffffffffffff1681565b5f818154811061046d575f80fd5b905f5260205f2090600502015f91509050805f01805461048c90610d88565b80601f01602080910402602001604051908101604052809291908181526020018280546104b890610d88565b80156105035780601f106104da57610100808354040283529160200191610503565b820191905f5260205f20905b8154815290600101906020018083116104e657829003601f168201915b505050505090806001015490806002015f9054906101000a900473ffffffffffffffffffffffffffffffffffffffff16908060020160149054906101000a900460ff16908060030154905085565b60045481565b60015f9054906101000a900473ffffffffffffffffffffffffffffffffffffffff1673ffffffffffffffffffffffffffffffffffffffff163373ffffffffffffffffffffffffffffffffffffffff16146105af575f80fd5b5f8060018160018154018082558091505003905f5260205f209060050201905083815f0190816105df9190610f55565b5082816001018190555081816002015f6101000a81548173ffffffffffffffffffffffffffffffffffffffff021916908373ffffffffffffffffffffffffffffffffffffffff1602179055505f8160020160146101000a81548160ff0219169083151502179055505f816003018190555050505050565b60025481565b6002543411610669575f80fd5b600160035f3373ffffffffffffffffffffffffffffffffffffffff1673ffffffffffffffffffffffffffffffffffffffff1681526020019081526020015f205f6101000a81548160ff02191690831515021790555060045f8154809291906106d090611024565b9190505550565b5f8082815481106106eb576106ea610ca4565b5b905f5260205f209060050201905060035f3373ffffffffffffffffffffffffffffffffffffffff1673ffffffffffffffffffffffffffffffffffffffff1681526020019081526020015f205f9054906101000a900460ff1661074b575f80fd5b5f828154811061075e5761075d610ca4565b5b905f5260205f2090600502016004015f3373ffffffffffffffffffffffffffffffffffffffff1673ffffffffffffffffffffffffffffffffffffffff1681526020019081526020015f205f9054906101000a900460ff16156107be575f80fd5b6001816004015f3373ffffffffffffffffffffffffffffffffffffffff1673ffffffffffffffffffffffffffffffffffffffff1681526020019081526020015f205f6101000a81548160ff021916908315150217905550806003015f81548092919061082990611024565b91905055505050565b5f604051905090565b5f80fd5b5f80fd5b5f819050919050565b61085581610843565b811461085f575f80fd5b50565b5f813590506108708161084c565b92915050565b5f6020828403121561088b5761088a61083b565b5b5f61089884828501610862565b91505092915050565b5f73ffffffffffffffffffffffffffffffffffffffff82169050919050565b5f6108ca826108a1565b9050919050565b6108da816108c0565b81146108e4575f80fd5b50565b5f813590506108f5816108d1565b92915050565b5f602082840312156109105761090f61083b565b5b5f61091d848285016108e7565b91505092915050565b5f8115159050919050565b61093a81610926565b82525050565b5f6020820190506109535f830184610931565b92915050565b61096281610843565b82525050565b5f60208201905061097b5f830184610959565b92915050565b61098a816108c0565b82525050565b5f60a0820190506109a35f830188610959565b6109b06020830187610959565b6109bd6040830186610959565b6109ca6060830185610959565b6109d76080830184610981565b9695505050505050565b5f6020820190506109f45f830184610981565b92915050565b5f81519050919050565b5f82825260208201905092915050565b8281835e5f83830152505050565b5f601f19601f8301169050919050565b5f610a3c826109fa565b610a468185610a04565b9350610a56818560208601610a14565b610a5f81610a22565b840191505092915050565b5f610a74826108a1565b9050919050565b610a8481610a6a565b82525050565b5f60a0820190508181035f830152610aa28188610a32565b9050610ab16020830187610959565b610abe6040830186610a7b565b610acb6060830185610931565b610ad86080830184610959565b9695505050505050565b5f80fd5b5f80fd5b7f4e487b71000000000000000000000000000000000000000000000000000000005f52604160045260245ffd5b610b2082610a22565b810181811067ffffffffffffffff82111715610b3f57610b3e610aea565b5b80604052505050565b5f610b51610832565b9050610b5d8282610b17565b919050565b5f67ffffffffffffffff821115610b7c57610b7b610aea565b5b610b8582610a22565b9050602081019050919050565b828183375f83830152505050565b5f610bb2610bad84610b62565b610b48565b905082815260208101848484011115610bce57610bcd610ae6565b5b610bd9848285610b92565b509392505050565b5f82601f830112610bf557610bf4610ae2565b5b8135610c05848260208601610ba0565b91505092915050565b610c1781610a6a565b8114610c21575f80fd5b50565b5f81359050610c3281610c0e565b92915050565b5f805f60608486031215610c4f57610c4e61083b565b5b5f84013567ffffffffffffffff811115610c6c57610c6b61083f565b5b610c7886828701610be1565b9350506020610c8986828701610862565b9250506040610c9a86828701610c24565b9150509250925092565b7f4e487b71000000000000000000000000000000000000000000000000000000005f52603260045260245ffd5b7f4e487b71000000000000000000000000000000000000000000000000000000005f52601260045260245ffd5b7f4e487b71000000000000000000000000000000000000000000000000000000005f52601160045260245ffd5b5f610d3582610843565b9150610d4083610843565b925082610d5057610d4f610cd1565b5b828204905092915050565b7f4e487b71000000000000000000000000000000000000000000000000000000005f52602260045260245ffd5b5f6002820490506001821680610d9f57607f821691505b602082108103610db257610db1610d5b565b5b50919050565b5f819050815f5260205f209050919050565b5f6020601f8301049050919050565b5f82821b905092915050565b5f60088302610e147fffffffffffffffffffffffffffffffffffffffffffffffffffffffffffffffff82610dd9565b610e1e8683610dd9565b95508019841693508086168417925050509392505050565b5f819050919050565b5f610e59610e54610e4f84610843565b610e36565b610843565b9050919050565b5f819050919050565b610e7283610e3f565b610e86610e7e82610e60565b848454610de5565b825550505050565b5f90565b610e9a610e8e565b610ea5818484610e69565b505050565b5b81811015610ec857610ebd5f82610e92565b600181019050610eab565b5050565b601f821115610f0d57610ede81610db8565b610ee784610dca565b81016020851015610ef6578190505b610f0a610f0285610dca565b830182610eaa565b50505b505050565b5f82821c905092915050565b5f610f2d5f1984600802610f12565b1980831691505092915050565b5f610f458383610f1e565b9150826002028217905092915050565b610f5e826109fa565b67ffffffffffffffff811115610f7757610f76610aea565b5b610f818254610d88565b610f8c828285610ecc565b5f60209050601f831160018114610fbd575f8415610fab578287015190505b610fb58582610f3a565b86555061101c565b601f198416610fcb86610db8565b5f5b82811015610ff257848901518255600182019150602085019450602081019050610fcd565b8683101561100f578489015161100b601f891682610f1e565b8355505b6001600288020188555050505b505050505050565b5f61102e82610843565b91507fffffffffffffffffffffffffffffffffffffffffffffffffffffffffffffffff82036110605761105f610cfe565b5b60018201905091905056fea2646970667358221220877ff5abeb1b19096a79b10e21744ceba1e38c22b21253fb7bc2cdce8d01517064736f6c634300081a0033","opcodes":"PUSH1 0x80 PUSH1 0x40 MSTORE CALLVALUE DUP1 ISZERO PUSH2 0xF JUMPI PUSH0 DUP1 REVERT JUMPDEST POP PUSH1 0x40 MLOAD PUSH2 0x11FC CODESIZE SUB DUP1 PUSH2 0x11FC DUP4 CODECOPY DUP2 DUP2 ADD PUSH1 0x40 MSTORE DUP2 ADD SWAP1 PUSH2 0x31 SWAP2 SWAP1 PUSH2 0x110 JUMP JUMPDEST DUP1 PUSH1 0x1 PUSH0 PUSH2 0x100 EXP DUP2 SLOAD DUP2 PUSH20 0xFFFFFFFFFFFFFFFFFFFFFFFFFFFFFFFFFFFFFFFF MUL NOT AND SWAP1 DUP4 PUSH20 0xFFFFFFFFFFFFFFFFFFFFFFFFFFFFFFFFFFFFFFFF AND MUL OR SWAP1 SSTORE POP DUP2 PUSH1 0x2 DUP2 SWAP1 SSTORE POP POP POP PUSH2 0x14E JUMP JUMPDEST PUSH0 DUP1 REVERT JUMPDEST PUSH0 DUP2 SWAP1 POP SWAP2 SWAP1 POP JUMP JUMPDEST PUSH2 0x95 DUP2 PUSH2 0x83 JUMP JUMPDEST DUP2 EQ PUSH2 0x9F JUMPI PUSH0 DUP1 REVERT JUMPDEST POP JUMP JUMPDEST PUSH0 DUP2 MLOAD SWAP1 POP PUSH2 0xB0 DUP2 PUSH2 0x8C JUMP JUMPDEST SWAP3 SWAP2 POP POP JUMP JUMPDEST PUSH0 PUSH20 0xFFFFFFFFFFFFFFFFFFFFFFFFFFFFFFFFFFFFFFFF DUP3 AND SWAP1 POP SWAP2 SWAP1 POP JUMP JUMPDEST PUSH0 PUSH2 0xDF DUP3 PUSH2 0xB6 JUMP JUMPDEST SWAP1 POP SWAP2 SWAP1 POP JUMP JUMPDEST PUSH2 0xEF DUP2 PUSH2 0xD5 JUMP JUMPDEST DUP2 EQ PUSH2 0xF9 JUMPI PUSH0 DUP1 REVERT JUMPDEST POP JUMP JUMPDEST PUSH0 DUP2 MLOAD SWAP1 POP PUSH2 0x10A DUP2 PUSH2 0xE6 JUMP JUMPDEST SWAP3 SWAP2 POP POP JUMP JUMPDEST PUSH0 DUP1 PUSH1 0x40 DUP4 DUP6 SUB SLT ISZERO PUSH2 0x126 JUMPI PUSH2 0x125 PUSH2 0x7F JUMP JUMPDEST JUMPDEST PUSH0 PUSH2 0x133 DUP6 DUP3 DUP7 ADD PUSH2 0xA2 JUMP JUMPDEST SWAP3 POP POP PUSH1 0x20 PUSH2 0x144 DUP6 DUP3 DUP7 ADD PUSH2 0xFC JUMP JUMPDEST SWAP2 POP POP SWAP3 POP SWAP3 SWAP1 POP JUMP JUMPDEST PUSH2 0x10A1 DUP1 PUSH2 0x15B PUSH0 CODECOPY PUSH0 RETURN INVALID PUSH1 0x80 PUSH1 0x40 MSTORE PUSH1 0x4 CALLDATASIZE LT PUSH2 0x9B JUMPI PUSH0 CALLDATALOAD PUSH1 0xE0 SHR DUP1 PUSH4 0x81D12C58 GT PUSH2 0x63 JUMPI DUP1 PUSH4 0x81D12C58 EQ PUSH2 0x185 JUMPI DUP1 PUSH4 0x82FDE093 EQ PUSH2 0x1C5 JUMPI DUP1 PUSH4 0x8A9CFD55 EQ PUSH2 0x1EF JUMPI DUP1 PUSH4 0x937E09B1 EQ PUSH2 0x217 JUMPI DUP1 PUSH4 0xD7BB99BA EQ PUSH2 0x241 JUMPI DUP1 PUSH4 0xD7D1BBDB EQ PUSH2 0x24B JUMPI PUSH2 0x9B JUMP JUMPDEST DUP1 PUSH4 0x3441006 EQ PUSH2 0x9F JUMPI DUP1 PUSH4 0xA144391 EQ PUSH2 0xC7 JUMPI DUP1 PUSH4 0x3FAD1834 EQ PUSH2 0x103 JUMPI DUP1 PUSH4 0x4051DDAC EQ PUSH2 0x12D JUMPI DUP1 PUSH4 0x481C6A75 EQ PUSH2 0x15B JUMPI JUMPDEST PUSH0 DUP1 REVERT JUMPDEST CALLVALUE DUP1 ISZERO PUSH2 0xAA JUMPI PUSH0 DUP1 REVERT JUMPDEST POP PUSH2 0xC5 PUSH1 0x4 DUP1 CALLDATASIZE SUB DUP2 ADD SWAP1 PUSH2 0xC0 SWAP2 SWAP1 PUSH2 0x876 JUMP JUMPDEST PUSH2 0x273 JUMP JUMPDEST STOP JUMPDEST CALLVALUE DUP1 ISZERO PUSH2 0xD2 JUMPI PUSH0 DUP1 REVERT JUMPDEST POP PUSH2 0xED PUSH1 0x4 DUP1 CALLDATASIZE SUB DUP2 ADD SWAP1 PUSH2 0xE8 SWAP2 SWAP1 PUSH2 0x8FB JUMP JUMPDEST PUSH2 0x3CE JUMP JUMPDEST PUSH1 0x40 MLOAD PUSH2 0xFA SWAP2 SWAP1 PUSH2 0x940 JUMP JUMPDEST PUSH1 0x40 MLOAD DUP1 SWAP2 SUB SWAP1 RETURN JUMPDEST CALLVALUE DUP1 ISZERO PUSH2 0x10E JUMPI PUSH0 DUP1 REVERT JUMPDEST POP PUSH2 0x117 PUSH2 0x3EB JUMP JUMPDEST PUSH1 0x40 MLOAD PUSH2 0x124 SWAP2 SWAP1 PUSH2 0x968 JUMP JUMPDEST PUSH1 0x40 MLOAD DUP1 SWAP2 SUB SWAP1 RETURN JUMPDEST CALLVALUE DUP1 ISZERO PUSH2 0x138 JUMPI PUSH0 DUP1 REVERT JUMPDEST POP PUSH2 0x141 PUSH2 0x3F6 JUMP JUMPDEST PUSH1 0x40 MLOAD PUSH2 0x152 SWAP6 SWAP5 SWAP4 SWAP3 SWAP2 SWAP1 PUSH2 0x990 JUMP JUMPDEST PUSH1 0x40 MLOAD DUP1 SWAP2 SUB SWAP1 RETURN JUMPDEST CALLVALUE DUP1 ISZERO PUSH2 0x166 JUMPI PUSH0 DUP1 REVERT JUMPDEST POP PUSH2 0x16F PUSH2 0x43A JUMP JUMPDEST PUSH1 0x40 MLOAD PUSH2 0x17C SWAP2 SWAP1 PUSH2 0x9E1 JUMP JUMPDEST PUSH1 0x40 MLOAD DUP1 SWAP2 SUB SWAP1 RETURN JUMPDEST CALLVALUE DUP1 ISZERO PUSH2 0x190 JUMPI PUSH0 DUP1 REVERT JUMPDEST POP PUSH2 0x1AB PUSH1 0x4 DUP1 CALLDATASIZE SUB DUP2 ADD SWAP1 PUSH2 0x1A6 SWAP2 SWAP1 PUSH2 0x876 JUMP JUMPDEST PUSH2 0x45F JUMP JUMPDEST PUSH1 0x40 MLOAD PUSH2 0x1BC SWAP6 SWAP5 SWAP4 SWAP3 SWAP2 SWAP1 PUSH2 0xA8A JUMP JUMPDEST PUSH1 0x40 MLOAD DUP1 SWAP2 SUB SWAP1 RETURN JUMPDEST CALLVALUE DUP1 ISZERO PUSH2 0x1D0 JUMPI PUSH0 DUP1 REVERT JUMPDEST POP PUSH2 0x1D9 PUSH2 0x551 JUMP JUMPDEST PUSH1 0x40 MLOAD PUSH2 0x1E6 SWAP2 SWAP1 PUSH2 0x968 JUMP JUMPDEST PUSH1 0x40 MLOAD DUP1 SWAP2 SUB SWAP1 RETURN JUMPDEST CALLVALUE DUP1 ISZERO PUSH2 0x1FA JUMPI PUSH0 DUP1 REVERT JUMPDEST POP PUSH2 0x215 PUSH1 0x4 DUP1 CALLDATASIZE SUB DUP2 ADD SWAP1 PUSH2 0x210 SWAP2 SWAP1 PUSH2 0xC38 JUMP JUMPDEST PUSH2 0x557 JUMP JUMPDEST STOP JUMPDEST CALLVALUE DUP1 ISZERO PUSH2 0x222 JUMPI PUSH0 DUP1 REVERT JUMPDEST POP PUSH2 0x22B PUSH2 0x656 JUMP JUMPDEST PUSH1 0x40 MLOAD PUSH2 0x238 SWAP2 SWAP1 PUSH2 0x968 JUMP JUMPDEST PUSH1 0x40 MLOAD DUP1 SWAP2 SUB SWAP1 RETURN JUMPDEST PUSH2 0x249 PUSH2 0x65C JUMP JUMPDEST STOP JUMPDEST CALLVALUE DUP1 ISZERO PUSH2 0x256 JUMPI PUSH0 DUP1 REVERT JUMPDEST POP PUSH2 0x271 PUSH1 0x4 DUP1 CALLDATASIZE SUB DUP2 ADD SWAP1 PUSH2 0x26C SWAP2 SWAP1 PUSH2 0x876 JUMP JUMPDEST PUSH2 0x6D7 JUMP JUMPDEST STOP JUMPDEST PUSH1 0x1 PUSH0 SWAP1 SLOAD SWAP1 PUSH2 0x100 EXP SWAP1 DIV PUSH20 0xFFFFFFFFFFFFFFFFFFFFFFFFFFFFFFFFFFFFFFFF AND PUSH20 0xFFFFFFFFFFFFFFFFFFFFFFFFFFFFFFFFFFFFFFFF AND CALLER PUSH20 0xFFFFFFFFFFFFFFFFFFFFFFFFFFFFFFFFFFFFFFFF AND EQ PUSH2 0x2CB JUMPI PUSH0 DUP1 REVERT JUMPDEST PUSH0 DUP1 DUP3 DUP2 SLOAD DUP2 LT PUSH2 0x2DF JUMPI PUSH2 0x2DE PUSH2 0xCA4 JUMP JUMPDEST JUMPDEST SWAP1 PUSH0 MSTORE PUSH1 0x20 PUSH0 KECCAK256 SWAP1 PUSH1 0x5 MUL ADD SWAP1 POP PUSH1 0x2 PUSH1 0x4 SLOAD PUSH2 0x2FC SWAP2 SWAP1 PUSH2 0xD2B JUMP JUMPDEST PUSH0 DUP4 DUP2 SLOAD DUP2 LT PUSH2 0x30F JUMPI PUSH2 0x30E PUSH2 0xCA4 JUMP JUMPDEST JUMPDEST SWAP1 PUSH0 MSTORE PUSH1 0x20 PUSH0 KECCAK256 SWAP1 PUSH1 0x5 MUL ADD PUSH1 0x3 ADD SLOAD GT PUSH2 0x328 JUMPI PUSH0 DUP1 REVERT JUMPDEST DUP1 PUSH1 0x2 ADD PUSH1 0x14 SWAP1 SLOAD SWAP1 PUSH2 0x100 EXP SWAP1 DIV PUSH1 0xFF AND PUSH2 0x342 JUMPI PUSH0 DUP1 REVERT JUMPDEST DUP1 PUSH1 0x2 ADD PUSH0 SWAP1 SLOAD SWAP1 PUSH2 0x100 EXP SWAP1 DIV PUSH20 0xFFFFFFFFFFFFFFFFFFFFFFFFFFFFFFFFFFFFFFFF AND PUSH20 0xFFFFFFFFFFFFFFFFFFFFFFFFFFFFFFFFFFFFFFFF AND PUSH2 0x8FC DUP3 PUSH1 0x1 ADD SLOAD SWAP1 DUP2 ISZERO MUL SWAP1 PUSH1 0x40 MLOAD PUSH0 PUSH1 0x40 MLOAD DUP1 DUP4 SUB DUP2 DUP6 DUP9 DUP9 CALL SWAP4 POP POP POP POP ISZERO DUP1 ISZERO PUSH2 0x3AC JUMPI RETURNDATASIZE PUSH0 DUP1 RETURNDATACOPY RETURNDATASIZE PUSH0 REVERT JUMPDEST POP PUSH1 0x1 DUP2 PUSH1 0x2 ADD PUSH1 0x14 PUSH2 0x100 EXP DUP2 SLOAD DUP2 PUSH1 0xFF MUL NOT AND SWAP1 DUP4 ISZERO ISZERO MUL OR SWAP1 SSTORE POP POP POP JUMP JUMPDEST PUSH1 0x3 PUSH1 0x20 MSTORE DUP1 PUSH0 MSTORE PUSH1 0x40 PUSH0 KECCAK256 PUSH0 SWAP2 POP SLOAD SWAP1 PUSH2 0x100 EXP SWAP1 DIV PUSH1 0xFF AND DUP2 JUMP JUMPDEST PUSH0 DUP1 DUP1 SLOAD SWAP1 POP SWAP1 POP SWAP1 JUMP JUMPDEST PUSH0 DUP1 PUSH0 DUP1 PUSH0 PUSH1 0x2 SLOAD SELFBALANCE PUSH0 DUP1 SLOAD SWAP1 POP PUSH1 0x4 SLOAD PUSH1 0x1 PUSH0 SWAP1 SLOAD SWAP1 PUSH2 0x100 EXP SWAP1 DIV PUSH20 0xFFFFFFFFFFFFFFFFFFFFFFFFFFFFFFFFFFFFFFFF AND SWAP5 POP SWAP5 POP SWAP5 POP SWAP5 POP SWAP5 POP SWAP1 SWAP2 SWAP3 SWAP4 SWAP5 JUMP JUMPDEST PUSH1 0x1 PUSH0 SWAP1 SLOAD SWAP1 PUSH2 0x100 EXP SWAP1 DIV PUSH20 0xFFFFFFFFFFFFFFFFFFFFFFFFFFFFFFFFFFFFFFFF AND DUP2 JUMP JUMPDEST PUSH0 DUP2 DUP2 SLOAD DUP2 LT PUSH2 0x46D JUMPI PUSH0 DUP1 REVERT JUMPDEST SWAP1 PUSH0 MSTORE PUSH1 0x20 PUSH0 KECCAK256 SWAP1 PUSH1 0x5 MUL ADD PUSH0 SWAP2 POP SWAP1 POP DUP1 PUSH0 ADD DUP1 SLOAD PUSH2 0x48C SWAP1 PUSH2 0xD88 JUMP JUMPDEST DUP1 PUSH1 0x1F ADD PUSH1 0x20 DUP1 SWAP2 DIV MUL PUSH1 0x20 ADD PUSH1 0x40 MLOAD SWAP1 DUP2 ADD PUSH1 0x40 MSTORE DUP1 SWAP3 SWAP2 SWAP1 DUP2 DUP2 MSTORE PUSH1 0x20 ADD DUP3 DUP1 SLOAD PUSH2 0x4B8 SWAP1 PUSH2 0xD88 JUMP JUMPDEST DUP1 ISZERO PUSH2 0x503 JUMPI DUP1 PUSH1 0x1F LT PUSH2 0x4DA JUMPI PUSH2 0x100 DUP1 DUP4 SLOAD DIV MUL DUP4 MSTORE SWAP2 PUSH1 0x20 ADD SWAP2 PUSH2 0x503 JUMP JUMPDEST DUP3 ADD SWAP2 SWAP1 PUSH0 MSTORE PUSH1 0x20 PUSH0 KECCAK256 SWAP1 JUMPDEST DUP2 SLOAD DUP2 MSTORE SWAP1 PUSH1 0x1 ADD SWAP1 PUSH1 0x20 ADD DUP1 DUP4 GT PUSH2 0x4E6 JUMPI DUP3 SWAP1 SUB PUSH1 0x1F AND DUP3 ADD SWAP2 JUMPDEST POP POP POP POP POP SWAP1 DUP1 PUSH1 0x1 ADD SLOAD SWAP1 DUP1 PUSH1 0x2 ADD PUSH0 SWAP1 SLOAD SWAP1 PUSH2 0x100 EXP SWAP1 DIV PUSH20 0xFFFFFFFFFFFFFFFFFFFFFFFFFFFFFFFFFFFFFFFF AND SWAP1 DUP1 PUSH1 0x2 ADD PUSH1 0x14 SWAP1 SLOAD SWAP1 PUSH2 0x100 EXP SWAP1 DIV PUSH1 0xFF AND SWAP1 DUP1 PUSH1 0x3 ADD SLOAD SWAP1 POP DUP6 JUMP JUMPDEST PUSH1 0x4 SLOAD DUP2 JUMP JUMPDEST PUSH1 0x1 PUSH0 SWAP1 SLOAD SWAP1 PUSH2 0x100 EXP SWAP1 DIV PUSH20 0xFFFFFFFFFFFFFFFFFFFFFFFFFFFFFFFFFFFFFFFF AND PUSH20 0xFFFFFFFFFFFFFFFFFFFFFFFFFFFFFFFFFFFFFFFF AND CALLER PUSH20 0xFFFFFFFFFFFFFFFFFFFFFFFFFFFFFFFFFFFFFFFF AND EQ PUSH2 0x5AF JUMPI PUSH0 DUP1 REVERT JUMPDEST PUSH0 DUP1 PUSH1 0x1 DUP2 PUSH1 0x1 DUP2 SLOAD ADD DUP1 DUP3 SSTORE DUP1 SWAP2 POP POP SUB SWAP1 PUSH0 MSTORE PUSH1 0x20 PUSH0 KECCAK256 SWAP1 PUSH1 0x5 MUL ADD SWAP1 POP DUP4 DUP2 PUSH0 ADD SWAP1 DUP2 PUSH2 0x5DF SWAP2 SWAP1 PUSH2 0xF55 JUMP JUMPDEST POP DUP3 DUP2 PUSH1 0x1 ADD DUP2 SWAP1 SSTORE POP DUP2 DUP2 PUSH1 0x2 ADD PUSH0 PUSH2 0x100 EXP DUP2 SLOAD DUP2 PUSH20 0xFFFFFFFFFFFFFFFFFFFFFFFFFFFFFFFFFFFFFFFF MUL NOT AND SWAP1 DUP4 PUSH20 0xFFFFFFFFFFFFFFFFFFFFFFFFFFFFFFFFFFFFFFFF AND MUL OR SWAP1 SSTORE POP PUSH0 DUP2 PUSH1 0x2 ADD PUSH1 0x14 PUSH2 0x100 EXP DUP2 SLOAD DUP2 PUSH1 0xFF MUL NOT AND SWAP1 DUP4 ISZERO ISZERO MUL OR SWAP1 SSTORE POP PUSH0 DUP2 PUSH1 0x3 ADD DUP2 SWAP1 SSTORE POP POP POP POP POP JUMP JUMPDEST PUSH1 0x2 SLOAD DUP2 JUMP JUMPDEST PUSH1 0x2 SLOAD CALLVALUE GT PUSH2 0x669 JUMPI PUSH0 DUP1 REVERT JUMPDEST PUSH1 0x1 PUSH1 0x3 PUSH0 CALLER PUSH20 0xFFFFFFFFFFFFFFFFFFFFFFFFFFFFFFFFFFFFFFFF AND PUSH20 0xFFFFFFFFFFFFFFFFFFFFFFFFFFFFFFFFFFFFFFFF AND DUP2 MSTORE PUSH1 0x20 ADD SWAP1 DUP2 MSTORE PUSH1 0x20 ADD PUSH0 KECCAK256 PUSH0 PUSH2 0x100 EXP DUP2 SLOAD DUP2 PUSH1 0xFF MUL NOT AND SWAP1 DUP4 ISZERO ISZERO MUL OR SWAP1 SSTORE POP PUSH1 0x4 PUSH0 DUP2 SLOAD DUP1 SWAP3 SWAP2 SWAP1 PUSH2 0x6D0 SWAP1 PUSH2 0x1024 JUMP JUMPDEST SWAP2 SWAP1 POP SSTORE POP JUMP JUMPDEST PUSH0 DUP1 DUP3 DUP2 SLOAD DUP2 LT PUSH2 0x6EB JUMPI PUSH2 0x6EA PUSH2 0xCA4 JUMP JUMPDEST JUMPDEST SWAP1 PUSH0 MSTORE PUSH1 0x20 PUSH0 KECCAK256 SWAP1 PUSH1 0x5 MUL ADD SWAP1 POP PUSH1 0x3 PUSH0 CALLER PUSH20 0xFFFFFFFFFFFFFFFFFFFFFFFFFFFFFFFFFFFFFFFF AND PUSH20 0xFFFFFFFFFFFFFFFFFFFFFFFFFFFFFFFFFFFFFFFF AND DUP2 MSTORE PUSH1 0x20 ADD SWAP1 DUP2 MSTORE PUSH1 0x20 ADD PUSH0 KECCAK256 PUSH0 SWAP1 SLOAD SWAP1 PUSH2 0x100 EXP SWAP1 DIV PUSH1 0xFF AND PUSH2 0x74B JUMPI PUSH0 DUP1 REVERT JUMPDEST PUSH0 DUP3 DUP2 SLOAD DUP2 LT PUSH2 0x75E JUMPI PUSH2 0x75D PUSH2 0xCA4 JUMP JUMPDEST JUMPDEST SWAP1 PUSH0 MSTORE PUSH1 0x20 PUSH0 KECCAK256 SWAP1 PUSH1 0x5 MUL ADD PUSH1 0x4 ADD PUSH0 CALLER PUSH20 0xFFFFFFFFFFFFFFFFFFFFFFFFFFFFFFFFFFFFFFFF AND PUSH20 0xFFFFFFFFFFFFFFFFFFFFFFFFFFFFFFFFFFFFFFFF AND DUP2 MSTORE PUSH1 0x20 ADD SWAP1 DUP2 MSTORE PUSH1 0x20 ADD PUSH0 KECCAK256 PUSH0 SWAP1 SLOAD SWAP1 PUSH2 0x100 EXP SWAP1 DIV PUSH1 0xFF AND ISZERO PUSH2 0x7BE JUMPI PUSH0 DUP1 REVERT JUMPDEST PUSH1 0x1 DUP2 PUSH1 0x4 ADD PUSH0 CALLER PUSH20 0xFFFFFFFFFFFFFFFFFFFFFFFFFFFFFFFFFFFFFFFF AND PUSH20 0xFFFFFFFFFFFFFFFFFFFFFFFFFFFFFFFFFFFFFFFF AND DUP2 MSTORE PUSH1 0x20 ADD SWAP1 DUP2 MSTORE PUSH1 0x20 ADD PUSH0 KECCAK256 PUSH0 PUSH2 0x100 EXP DUP2 SLOAD DUP2 PUSH1 0xFF MUL NOT AND SWAP1 DUP4 ISZERO ISZERO MUL OR SWAP1 SSTORE POP DUP1 PUSH1 0x3 ADD PUSH0 DUP2 SLOAD DUP1 SWAP3 SWAP2 SWAP1 PUSH2 0x829 SWAP1 PUSH2 0x1024 JUMP JUMPDEST SWAP2 SWAP1 POP SSTORE POP POP POP JUMP JUMPDEST PUSH0 PUSH1 0x40 MLOAD SWAP1 POP SWAP1 JUMP JUMPDEST PUSH0 DUP1 REVERT JUMPDEST PUSH0 DUP1 REVERT JUMPDEST PUSH0 DUP2 SWAP1 POP SWAP2 SWAP1 POP JUMP JUMPDEST PUSH2 0x855 DUP2 PUSH2 0x843 JUMP JUMPDEST DUP2 EQ PUSH2 0x85F JUMPI PUSH0 DUP1 REVERT JUMPDEST POP JUMP JUMPDEST PUSH0 DUP2 CALLDATALOAD SWAP1 POP PUSH2 0x870 DUP2 PUSH2 0x84C JUMP JUMPDEST SWAP3 SWAP2 POP POP JUMP JUMPDEST PUSH0 PUSH1 0x20 DUP3 DUP5 SUB SLT ISZERO PUSH2 0x88B JUMPI PUSH2 0x88A PUSH2 0x83B JUMP JUMPDEST JUMPDEST PUSH0 PUSH2 0x898 DUP5 DUP3 DUP6 ADD PUSH2 0x862 JUMP JUMPDEST SWAP2 POP POP SWAP3 SWAP2 POP POP JUMP JUMPDEST PUSH0 PUSH20 0xFFFFFFFFFFFFFFFFFFFFFFFFFFFFFFFFFFFFFFFF DUP3 AND SWAP1 POP SWAP2 SWAP1 POP JUMP JUMPDEST PUSH0 PUSH2 0x8CA DUP3 PUSH2 0x8A1 JUMP JUMPDEST SWAP1 POP SWAP2 SWAP1 POP JUMP JUMPDEST PUSH2 0x8DA DUP2 PUSH2 0x8C0 JUMP JUMPDEST DUP2 EQ PUSH2 0x8E4 JUMPI PUSH0 DUP1 REVERT JUMPDEST POP JUMP JUMPDEST PUSH0 DUP2 CALLDATALOAD SWAP1 POP PUSH2 0x8F5 DUP2 PUSH2 0x8D1 JUMP JUMPDEST SWAP3 SWAP2 POP POP JUMP JUMPDEST PUSH0 PUSH1 0x20 DUP3 DUP5 SUB SLT ISZERO PUSH2 0x910 JUMPI PUSH2 0x90F PUSH2 0x83B JUMP JUMPDEST JUMPDEST PUSH0 PUSH2 0x91D DUP5 DUP3 DUP6 ADD PUSH2 0x8E7 JUMP JUMPDEST SWAP2 POP POP SWAP3 SWAP2 POP POP JUMP JUMPDEST PUSH0 DUP2 ISZERO ISZERO SWAP1 POP SWAP2 SWAP1 POP JUMP JUMPDEST PUSH2 0x93A DUP2 PUSH2 0x926 JUMP JUMPDEST DUP3 MSTORE POP POP JUMP JUMPDEST PUSH0 PUSH1 0x20 DUP3 ADD SWAP1 POP PUSH2 0x953 PUSH0 DUP4 ADD DUP5 PUSH2 0x931 JUMP JUMPDEST SWAP3 SWAP2 POP POP JUMP JUMPDEST PUSH2 0x962 DUP2 PUSH2 0x843 JUMP JUMPDEST DUP3 MSTORE POP POP JUMP JUMPDEST PUSH0 PUSH1 0x20 DUP3 ADD SWAP1 POP PUSH2 0x97B PUSH0 DUP4 ADD DUP5 PUSH2 0x959 JUMP JUMPDEST SWAP3 SWAP2 POP POP JUMP JUMPDEST PUSH2 0x98A DUP2 PUSH2 0x8C0 JUMP JUMPDEST DUP3 MSTORE POP POP JUMP JUMPDEST PUSH0 PUSH1 0xA0 DUP3 ADD SWAP1 POP PUSH2 0x9A3 PUSH0 DUP4 ADD DUP9 PUSH2 0x959 JUMP JUMPDEST PUSH2 0x9B0 PUSH1 0x20 DUP4 ADD DUP8 PUSH2 0x959 JUMP JUMPDEST PUSH2 0x9BD PUSH1 0x40 DUP4 ADD DUP7 PUSH2 0x959 JUMP JUMPDEST PUSH2 0x9CA PUSH1 0x60 DUP4 ADD DUP6 PUSH2 0x959 JUMP JUMPDEST PUSH2 0x9D7 PUSH1 0x80 DUP4 ADD DUP5 PUSH2 0x981 JUMP JUMPDEST SWAP7 SWAP6 POP POP POP POP POP POP JUMP JUMPDEST PUSH0 PUSH1 0x20 DUP3 ADD SWAP1 POP PUSH2 0x9F4 PUSH0 DUP4 ADD DUP5 PUSH2 0x981 JUMP JUMPDEST SWAP3 SWAP2 POP POP JUMP JUMPDEST PUSH0 DUP2 MLOAD SWAP1 POP SWAP2 SWAP1 POP JUMP JUMPDEST PUSH0 DUP3 DUP3 MSTORE PUSH1 0x20 DUP3 ADD SWAP1 POP SWAP3 SWAP2 POP POP JUMP JUMPDEST DUP3 DUP2 DUP4 MCOPY PUSH0 DUP4 DUP4 ADD MSTORE POP POP POP JUMP JUMPDEST PUSH0 PUSH1 0x1F NOT PUSH1 0x1F DUP4 ADD AND SWAP1 POP SWAP2 SWAP1 POP JUMP JUMPDEST PUSH0 PUSH2 0xA3C DUP3 PUSH2 0x9FA JUMP JUMPDEST PUSH2 0xA46 DUP2 DUP6 PUSH2 0xA04 JUMP JUMPDEST SWAP4 POP PUSH2 0xA56 DUP2 DUP6 PUSH1 0x20 DUP7 ADD PUSH2 0xA14 JUMP JUMPDEST PUSH2 0xA5F DUP2 PUSH2 0xA22 JUMP JUMPDEST DUP5 ADD SWAP2 POP POP SWAP3 SWAP2 POP POP JUMP JUMPDEST PUSH0 PUSH2 0xA74 DUP3 PUSH2 0x8A1 JUMP JUMPDEST SWAP1 POP SWAP2 SWAP1 POP JUMP JUMPDEST PUSH2 0xA84 DUP2 PUSH2 0xA6A JUMP JUMPDEST DUP3 MSTORE POP POP JUMP JUMPDEST PUSH0 PUSH1 0xA0 DUP3 ADD SWAP1 POP DUP2 DUP2 SUB PUSH0 DUP4 ADD MSTORE PUSH2 0xAA2 DUP2 DUP9 PUSH2 0xA32 JUMP JUMPDEST SWAP1 POP PUSH2 0xAB1 PUSH1 0x20 DUP4 ADD DUP8 PUSH2 0x959 JUMP JUMPDEST PUSH2 0xABE PUSH1 0x40 DUP4 ADD DUP7 PUSH2 0xA7B JUMP JUMPDEST PUSH2 0xACB PUSH1 0x60 DUP4 ADD DUP6 PUSH2 0x931 JUMP JUMPDEST PUSH2 0xAD8 PUSH1 0x80 DUP4 ADD DUP5 PUSH2 0x959 JUMP JUMPDEST SWAP7 SWAP6 POP POP POP POP POP POP JUMP JUMPDEST PUSH0 DUP1 REVERT JUMPDEST PUSH0 DUP1 REVERT JUMPDEST PUSH32 0x4E487B7100000000000000000000000000000000000000000000000000000000 PUSH0 MSTORE PUSH1 0x41 PUSH1 0x4 MSTORE PUSH1 0x24 PUSH0 REVERT JUMPDEST PUSH2 0xB20 DUP3 PUSH2 0xA22 JUMP JUMPDEST DUP2 ADD DUP2 DUP2 LT PUSH8 0xFFFFFFFFFFFFFFFF DUP3 GT OR ISZERO PUSH2 0xB3F JUMPI PUSH2 0xB3E PUSH2 0xAEA JUMP JUMPDEST JUMPDEST DUP1 PUSH1 0x40 MSTORE POP POP POP JUMP JUMPDEST PUSH0 PUSH2 0xB51 PUSH2 0x832 JUMP JUMPDEST SWAP1 POP PUSH2 0xB5D DUP3 DUP3 PUSH2 0xB17 JUMP JUMPDEST SWAP2 SWAP1 POP JUMP JUMPDEST PUSH0 PUSH8 0xFFFFFFFFFFFFFFFF DUP3 GT ISZERO PUSH2 0xB7C JUMPI PUSH2 0xB7B PUSH2 0xAEA JUMP JUMPDEST JUMPDEST PUSH2 0xB85 DUP3 PUSH2 0xA22 JUMP JUMPDEST SWAP1 POP PUSH1 0x20 DUP2 ADD SWAP1 POP SWAP2 SWAP1 POP JUMP JUMPDEST DUP3 DUP2 DUP4 CALLDATACOPY PUSH0 DUP4 DUP4 ADD MSTORE POP POP POP JUMP JUMPDEST PUSH0 PUSH2 0xBB2 PUSH2 0xBAD DUP5 PUSH2 0xB62 JUMP JUMPDEST PUSH2 0xB48 JUMP JUMPDEST SWAP1 POP DUP3 DUP2 MSTORE PUSH1 0x20 DUP2 ADD DUP5 DUP5 DUP5 ADD GT ISZERO PUSH2 0xBCE JUMPI PUSH2 0xBCD PUSH2 0xAE6 JUMP JUMPDEST JUMPDEST PUSH2 0xBD9 DUP5 DUP3 DUP6 PUSH2 0xB92 JUMP JUMPDEST POP SWAP4 SWAP3 POP POP POP JUMP JUMPDEST PUSH0 DUP3 PUSH1 0x1F DUP4 ADD SLT PUSH2 0xBF5 JUMPI PUSH2 0xBF4 PUSH2 0xAE2 JUMP JUMPDEST JUMPDEST DUP2 CALLDATALOAD PUSH2 0xC05 DUP5 DUP3 PUSH1 0x20 DUP7 ADD PUSH2 0xBA0 JUMP JUMPDEST SWAP2 POP POP SWAP3 SWAP2 POP POP JUMP JUMPDEST PUSH2 0xC17 DUP2 PUSH2 0xA6A JUMP JUMPDEST DUP2 EQ PUSH2 0xC21 JUMPI PUSH0 DUP1 REVERT JUMPDEST POP JUMP JUMPDEST PUSH0 DUP2 CALLDATALOAD SWAP1 POP PUSH2 0xC32 DUP2 PUSH2 0xC0E JUMP JUMPDEST SWAP3 SWAP2 POP POP JUMP JUMPDEST PUSH0 DUP1 PUSH0 PUSH1 0x60 DUP5 DUP7 SUB SLT ISZERO PUSH2 0xC4F JUMPI PUSH2 0xC4E PUSH2 0x83B JUMP JUMPDEST JUMPDEST PUSH0 DUP5 ADD CALLDATALOAD PUSH8 0xFFFFFFFFFFFFFFFF DUP2 GT ISZERO PUSH2 0xC6C JUMPI PUSH2 0xC6B PUSH2 0x83F JUMP JUMPDEST JUMPDEST PUSH2 0xC78 DUP7 DUP3 DUP8 ADD PUSH2 0xBE1 JUMP JUMPDEST SWAP4 POP POP PUSH1 0x20 PUSH2 0xC89 DUP7 DUP3 DUP8 ADD PUSH2 0x862 JUMP JUMPDEST SWAP3 POP POP PUSH1 0x40 PUSH2 0xC9A DUP7 DUP3 DUP8 ADD PUSH2 0xC24 JUMP JUMPDEST SWAP2 POP POP SWAP3 POP SWAP3 POP SWAP3 JUMP JUMPDEST PUSH32 0x4E487B7100000000000000000000000000000000000000000000000000000000 PUSH0 MSTORE PUSH1 0x32 PUSH1 0x4 MSTORE PUSH1 0x24 PUSH0 REVERT JUMPDEST PUSH32 0x4E487B7100000000000000000000000000000000000000000000000000000000 PUSH0 MSTORE PUSH1 0x12 PUSH1 0x4 MSTORE PUSH1 0x24 PUSH0 REVERT JUMPDEST PUSH32 0x4E487B7100000000000000000000000000000000000000000000000000000000 PUSH0 MSTORE PUSH1 0x11 PUSH1 0x4 MSTORE PUSH1 0x24 PUSH0 REVERT JUMPDEST PUSH0 PUSH2 0xD35 DUP3 PUSH2 0x843 JUMP JUMPDEST SWAP2 POP PUSH2 0xD40 DUP4 PUSH2 0x843 JUMP JUMPDEST SWAP3 POP DUP3 PUSH2 0xD50 JUMPI PUSH2 0xD4F PUSH2 0xCD1 JUMP JUMPDEST JUMPDEST DUP3 DUP3 DIV SWAP1 POP SWAP3 SWAP2 POP POP JUMP JUMPDEST PUSH32 0x4E487B7100000000000000000000000000000000000000000000000000000000 PUSH0 MSTORE PUSH1 0x22 PUSH1 0x4 MSTORE PUSH1 0x24 PUSH0 REVERT JUMPDEST PUSH0 PUSH1 0x2 DUP3 DIV SWAP1 POP PUSH1 0x1 DUP3 AND DUP1 PUSH2 0xD9F JUMPI PUSH1 0x7F DUP3 AND SWAP2 POP JUMPDEST PUSH1 0x20 DUP3 LT DUP2 SUB PUSH2 0xDB2 JUMPI PUSH2 0xDB1 PUSH2 0xD5B JUMP JUMPDEST JUMPDEST POP SWAP2 SWAP1 POP JUMP JUMPDEST PUSH0 DUP2 SWAP1 POP DUP2 PUSH0 MSTORE PUSH1 0x20 PUSH0 KECCAK256 SWAP1 POP SWAP2 SWAP1 POP JUMP JUMPDEST PUSH0 PUSH1 0x20 PUSH1 0x1F DUP4 ADD DIV SWAP1 POP SWAP2 SWAP1 POP JUMP JUMPDEST PUSH0 DUP3 DUP3 SHL SWAP1 POP SWAP3 SWAP2 POP POP JUMP JUMPDEST PUSH0 PUSH1 0x8 DUP4 MUL PUSH2 0xE14 PUSH32 0xFFFFFFFFFFFFFFFFFFFFFFFFFFFFFFFFFFFFFFFFFFFFFFFFFFFFFFFFFFFFFFFF DUP3 PUSH2 0xDD9 JUMP JUMPDEST PUSH2 0xE1E DUP7 DUP4 PUSH2 0xDD9 JUMP JUMPDEST SWAP6 POP DUP1 NOT DUP5 AND SWAP4 POP DUP1 DUP7 AND DUP5 OR SWAP3 POP POP POP SWAP4 SWAP3 POP POP POP JUMP JUMPDEST PUSH0 DUP2 SWAP1 POP SWAP2 SWAP1 POP JUMP JUMPDEST PUSH0 PUSH2 0xE59 PUSH2 0xE54 PUSH2 0xE4F DUP5 PUSH2 0x843 JUMP JUMPDEST PUSH2 0xE36 JUMP JUMPDEST PUSH2 0x843 JUMP JUMPDEST SWAP1 POP SWAP2 SWAP1 POP JUMP JUMPDEST PUSH0 DUP2 SWAP1 POP SWAP2 SWAP1 POP JUMP JUMPDEST PUSH2 0xE72 DUP4 PUSH2 0xE3F JUMP JUMPDEST PUSH2 0xE86 PUSH2 0xE7E DUP3 PUSH2 0xE60 JUMP JUMPDEST DUP5 DUP5 SLOAD PUSH2 0xDE5 JUMP JUMPDEST DUP3 SSTORE POP POP POP POP JUMP JUMPDEST PUSH0 SWAP1 JUMP JUMPDEST PUSH2 0xE9A PUSH2 0xE8E JUMP JUMPDEST PUSH2 0xEA5 DUP2 DUP5 DUP5 PUSH2 0xE69 JUMP JUMPDEST POP POP POP JUMP JUMPDEST JUMPDEST DUP2 DUP2 LT ISZERO PUSH2 0xEC8 JUMPI PUSH2 0xEBD PUSH0 DUP3 PUSH2 0xE92 JUMP JUMPDEST PUSH1 0x1 DUP2 ADD SWAP1 POP PUSH2 0xEAB JUMP JUMPDEST POP POP JUMP JUMPDEST PUSH1 0x1F DUP3 GT ISZERO PUSH2 0xF0D JUMPI PUSH2 0xEDE DUP2 PUSH2 0xDB8 JUMP JUMPDEST PUSH2 0xEE7 DUP5 PUSH2 0xDCA JUMP JUMPDEST DUP2 ADD PUSH1 0x20 DUP6 LT ISZERO PUSH2 0xEF6 JUMPI DUP2 SWAP1 POP JUMPDEST PUSH2 0xF0A PUSH2 0xF02 DUP6 PUSH2 0xDCA JUMP JUMPDEST DUP4 ADD DUP3 PUSH2 0xEAA JUMP JUMPDEST POP POP JUMPDEST POP POP POP JUMP JUMPDEST PUSH0 DUP3 DUP3 SHR SWAP1 POP SWAP3 SWAP2 POP POP JUMP JUMPDEST PUSH0 PUSH2 0xF2D PUSH0 NOT DUP5 PUSH1 0x8 MUL PUSH2 0xF12 JUMP JUMPDEST NOT DUP1 DUP4 AND SWAP2 POP POP SWAP3 SWAP2 POP POP JUMP JUMPDEST PUSH0 PUSH2 0xF45 DUP4 DUP4 PUSH2 0xF1E JUMP JUMPDEST SWAP2 POP DUP3 PUSH1 0x2 MUL DUP3 OR SWAP1 POP SWAP3 SWAP2 POP POP JUMP JUMPDEST PUSH2 0xF5E DUP3 PUSH2 0x9FA JUMP JUMPDEST PUSH8 0xFFFFFFFFFFFFFFFF DUP2 GT ISZERO PUSH2 0xF77 JUMPI PUSH2 0xF76 PUSH2 0xAEA JUMP JUMPDEST JUMPDEST PUSH2 0xF81 DUP3 SLOAD PUSH2 0xD88 JUMP JUMPDEST PUSH2 0xF8C DUP3 DUP3 DUP6 PUSH2 0xECC JUMP JUMPDEST PUSH0 PUSH1 0x20 SWAP1 POP PUSH1 0x1F DUP4 GT PUSH1 0x1 DUP2 EQ PUSH2 0xFBD JUMPI PUSH0 DUP5 ISZERO PUSH2 0xFAB JUMPI DUP3 DUP8 ADD MLOAD SWAP1 POP JUMPDEST PUSH2 0xFB5 DUP6 DUP3 PUSH2 0xF3A JUMP JUMPDEST DUP7 SSTORE POP PUSH2 0x101C JUMP JUMPDEST PUSH1 0x1F NOT DUP5 AND PUSH2 0xFCB DUP7 PUSH2 0xDB8 JUMP JUMPDEST PUSH0 JUMPDEST DUP3 DUP2 LT ISZERO PUSH2 0xFF2 JUMPI DUP5 DUP10 ADD MLOAD DUP3 SSTORE PUSH1 0x1 DUP3 ADD SWAP2 POP PUSH1 0x20 DUP6 ADD SWAP5 POP PUSH1 0x20 DUP2 ADD SWAP1 POP PUSH2 0xFCD JUMP JUMPDEST DUP7 DUP4 LT ISZERO PUSH2 0x100F JUMPI DUP5 DUP10 ADD MLOAD PUSH2 0x100B PUSH1 0x1F DUP10 AND DUP3 PUSH2 0xF1E JUMP JUMPDEST DUP4 SSTORE POP JUMPDEST PUSH1 0x1 PUSH1 0x2 DUP9 MUL ADD DUP9 SSTORE POP POP POP JUMPDEST POP POP POP POP POP POP JUMP JUMPDEST PUSH0 PUSH2 0x102E DUP3 PUSH2 0x843 JUMP JUMPDEST SWAP2 POP PUSH32 0xFFFFFFFFFFFFFFFFFFFFFFFFFFFFFFFFFFFFFFFFFFFFFFFFFFFFFFFFFFFFFFFF DUP3 SUB PUSH2 0x1060 JUMPI PUSH2 0x105F PUSH2 0xCFE JUMP JUMPDEST JUMPDEST PUSH1 0x1 DUP3 ADD SWAP1 POP SWAP2 SWAP1 POP JUMP INVALID LOG2 PUSH5 0x6970667358 0x22 SLT KECCAK256 DUP8 PUSH32 0xF5ABEB1B19096A79B10E21744CEBA1E38C22B21253FB7BC2CDCE8D0151706473 PUSH16 0x6C634300081A00330000000000000000 "},"gasEstimates":{"creation":{"codeDepositCost":"851400","executionCost":"infinite","totalCost":"infinite"},"external":{"approveRequest(uint256)":"infinite","approvers(address)":"2856","approversCount()":"2447","contribute()":"51036","createRequest(string,uint256,address)":"infinite","finalizeRequest(uint256)":"infinite","getRequestCount()":"2485","getSummary()":"infinite","manager()":"2597","minimumContribution()":"2491","requests(uint256)":"infinite"}},"methodIdentifiers":{"approveRequest(uint256)":"d7d1bbdb","approvers(address)":"0a144391","approversCount()":"82fde093","contribute()":"d7bb99ba","createRequest(string,uint256,address)":"8a9cfd55","finalizeRequest(uint256)":"03441006","getRequestCount()":"3fad1834","getSummary()":"4051ddac","manager()":"481c6a75","minimumContribution()":"937e09b1","requests(uint256)":"81d12c58"}},"storageLayout":{"storage":[{"astId":58,"contract":"Campaign.sol:Campaign","label":"requests","offset":0,"slot":"0","type":"t_array(t_struct(Request)54_storage)dyn_storage"},{"astId":60,"contract":"Campaign.sol:Campaign","label":"manager","offset":0,"slot":"1","type":"t_address"},{"astId":62,"contract":"Campaign.sol:Campaign","label":"minimumContribution","offset":0,"slot":"2","type":"t_uint256"},{"astId":66,"contract":"Campaign.sol:Campaign","label":"approvers","offset":0,"slot":"3","type":"t_mapping(t_address,t_bool)"},{"astId":68,"contract":"Campaign.sol:Campaign","label":"approversCount","offset":0,"slot":"4","type":"t_uint256"}],"types":{"t_address":{"encoding":"inplace","label":"address","numberOfBytes":"20"},"t_address_payable":{"encoding":"inplace","label":"address payable","numberOfBytes":"20"},"t_array(t_struct(Request)54_storage)dyn_storage":{"base":"t_struct(Request)54_storage","encoding":"dynamic_array","label":"struct Campaign.Request[]","numberOfBytes":"32"},"t_bool":{"encoding":"inplace","label":"bool","numberOfBytes":"1"},"t_mapping(t_address,t_bool)":{"encoding":"mapping","key":"t_address","label":"mapping(address => bool)","numberOfBytes":"32","value":"t_bool"},"t_string_storage":{"encoding":"bytes","label":"string","numberOfBytes":"32"},"t_struct(Request)54_storage":{"encoding":"inplace","label":"struct Campaign.Request","members":[{"astId":41,"contract":"Campaign.sol:Campaign","label":"description","offset":0,"slot":"0","type":"t_string_storage"},{"astId":43,"contract":"Campaign.sol:Campaign","label":"value","offset":0,"slot":"1","type":"t_uint256"},{"astId":45,"contract":"Campaign.sol:Campaign","label":"recipient","offset":0,"slot":"2","type":"t_address_payable"},{"astId":47,"contract":"Campaign.sol:Campaign","label":"complete","offset":20,"slot":"2","type":"t_bool"},{"astId":49,"contract":"Campaign.sol:Campaign","label":"approvalCount","offset":0,"slot":"3","type":"t_uint256"},{"astId":53,"contract":"Campaign.sol:Campaign","label":"approvals","offset":0,"slot":"4","type":"t_mapping(t_address,t_bool)"}],"numberOfBytes":"160"},"t_uint256":{"encoding":"inplace","label":"uint256","numberOfBytes":"32"}}},"userdoc":{"kind":"user","methods":{},"version":1}}